S01700006275696C642F697269732F6D61696E2E7372656343
S11300000C9469000C9488000C9488000C9488006B
S11300100C9488000C9488000C9488000C9488003C
S11300200C9488000C9488000C9488000C9488002C
S11300300C9488000C943E040C9488000C942203C5
S11300400C94350D0C946D0D0C94FA030C9405046A
S11300500C9410040C9488000C9488000C94880070
S11300600C9443030C9488000C9488000C9488002E
S11300700C9488000C9488000C9488000C948800DC
S11300800C9488000C9488000C9488000C948800CC
S11300900C9488000C9488000C9488000C948800BC
S11300A00C9488000C9488000C9488000C948800AC
S11300B00C9488000C9488000C9488000C9488009C
S11300C00C9488000C9488000C94880000020E069E
S11300D00C0411241FBECFEFD1E2DEBFCDBF12E06E
S11300E0A0E0B2E0E4EEFAE200E00BBF02C0079049
S11300F00D92AC30B107D9F713E0ACE0B2E001C027
S11301001D92A03DB107E1F70E94FA110C947115FC
S11301100C9400008FB7F894992708958FBF089521
S1130120CF93DF93FC01DC0111962181662351F00A
S1130130ED0189819927982F882733272062822B04
S1130140932B09C0ED0189819927982F882733279C
S1130150822B932B8F7D8183892F99278983DF912C
S1130160CF910895282F9FB7F894E82FFF27E95DD2
S1130170FD4F80818F3F81F4E091CA03E21771F44F
S11301800BC02093B90304C0FF27E95DFD4F208312
S11301902093CA0320E007C025E005C08091B9037D
S11301A08F3F91F7EECF892F99278FBF822F992701
S11301B00895882319F08CB5806402C08CB58F7BB8
S11301C08CBD08950F931F93982F1FB7F8948091B7
S11301D00E02823099F580910A02891779F580918F
S11301E0080220E030E08F3F11F421E030E0232BBF
S11301F0F1F49FEF90930A028F3F19F42FEF30E050
S11302000DC0282F3327F901E451FD4F80818093DD
S113021008028F3F11F49093090290832093ED021A
S113022081E080930E0289E00E94B20005C08FEF46
S113023080930A0210920E0201E001C000E0812FB7
S113024099278FBF1FB7F89480910E02882311F469
S11302500E94D900812F99278FBF90E0013009F4C3
S113026091E081E09827892F99271F910F91089594
S1130270882319F08CB5806802C08CB58F778CBD4B
S113028008950F931F9380E00E94D9000FB7F8944C
S11302901127229A2398219A8CB580618CBD80E025
S11302A00E9438018DB581608DBD8CB5877F8CBD72
S11302B08CB58B7F8CBD8CB58E7F8CBD81E00E940C
S11302C0D9000FBF1F910F9108958FB7F894209113
S11302D05E0330915F034091600350916103E091AC
S11302E08400F0918500B09B08C02F5F3F4F4F4FB3
S11302F05F4FE0918400F091850099278FBFC90179
S1130300772766279F0144275527622B732B842B5D
S1130310952B0895FC0180A9826080AB08958C968A
S11303200895AC01EFB7F8942091840030918500D2
S1130330C901841B950B03968617970720F0B90112
S11303406D5F7F4F02C0640F751F6115710511F455
S113035061E070E0615070407093890060938800A0
S113036082E086BB80916F00826080936F008E2F45
S113037099278FBF0895FC01828121819927982FA5
S113038088273327822B932B85FF1FC087749C7C7F
S113039081549848D1F4878146812FB7F894332744
S11303A060910202709103022FBF20E09927982FD9
S11303B088275527842B952B8617970709F021E06A
S11303C081E02827822F9927089580E090E00895FE
S11303D0EF92FF920F931F937C018FB7F8949927A4
S11303E000913602109137020F5E1E4F10933702B0
S11303F000933602015111408FBF87E00E94B20082
S1130400C801B7010E9400158A5D9E4F1F910F918C
S1130410FF90EF900895FC0182A593A508957FB7FE
S1130420F8946091B200209122023091230240910D
S1130430240250912502B99B11C08091B300909180
S1130440B200280F311D411D511D2F5F3F4F4F4FEB
S11304505F4F290F311D411D511D04C0260F311D51
S1130460411D511D872F99278FBFCA01B9010895D6
S1130470EF92FF920F931F93E0916B03E1FF34C05F
S113048020916303309164034091650350916603A6
S1130490E0906703F09068030091690310916A0388
S11304A0621B730B840B950B6E157F0580079107F8
S11304B0D8F0E0FF04C0ED7FE0936B030CC02E0D79
S11304C03F1D401F511F20936303309364034093E7
S11304D06503509366038091200290912102892B39
S11304E019F081E00E94B20083E00E94B2001F91E3
S11304F00F91FF90EF900895DF92EF92FF920F9388
S11305001F938FB7F894282F3327D22E9091B300DE
S11305108091B20047B3981711F041FF02C02FBF7A
S113052071C0809146028823E1F10E940F02E0909D
S11305301902F0901A0200911B0210911C022091E2
S1130540BD033091BE034091BF035091C0036E19A7
S11305507F09800B910B621773078407950720F0BE
S11305601092460271E01EC02E0D3F1D401F511F08
S11305708091220290912302A0912402B09125023D
S1130580281B390B4A0B5B0B273E310541055105EE
S113059040F4822F223010F070E005C070E082E059
S11305A002C070E086EE682F61508091B60083FD32
S11305B0FCCF8091B200681709F46F5F209122028A
S11305C0309123024091240250912502DA01C9019D
S11305D00196A11DB11D860F911DA11DB11D82178C
S11305E09307A407B50710F4622F60958091B600B5
S11305F083FDFCCF6093B300DFBE772319F082E064
S11306000E94B2001F910F91FF90EF90DF90089528
S1130610AFB7F894BB27E1E0E09346026093190278
S113062070931A0280931B0290931C022093BD03C3
S11306303093BE034093BF035093C003AFBF0E94E7
S11306407C0208951F920F920FB60F9211248F937C
S11306508091B0008093B0008091B60081FDFCCF02
S11306608F910F900FBE0F901F9018951F93182F06
S113067081E00E94D9001EBD0DB407FEFDCF8EB5EA
S113068099271F9108951F920F920FB60F9211246C
S11306908F929F92AF92BF92CF92DF92EF92FF928E
S11306A00F931F932F933F934F935F936F937F9376
S11306B08F939F93AF93BF93CF93DF93EF93FF9366
S11306C02EB5E0916C03F0916D03309739F0809171
S11306D05A0390915B03E80FF91F208380915A031A
S11306E090915B03019690935B0380935A0380E09F
S11306F00E943801C0915A03D0915B03809111028A
S113070090911202C817D90708F046C00091C1039E
S11307101091C20380906C0390906D030F2EFAE049
S1130720AF2EBB24F02DAC0EBD1E8A159B0508F41C
S11307305C016401CC0EDD1E7801EC0EFD1E15C0BB
S11307400115110519F0F701808101C080E00E94B4
S113075036038114910411F0F601808321960894E4
S1130760C11CD11C0894E11CF11CC5010197C817D8
S1130770D90730F381E00E9438010115110531F0E9
S11307800C0F1D1FF80180818EBD01C01EBCD093CB
S11307905B03C0935A0311C010926D0310926C0353
S11307A01092C2031092C10310921202109211020D
S11307B010925B0310925A038EB5FF91EF91DF9173
S11307C0CF91BF91AF919F918F917F916F915F91E5
S11307D04F913F912F911F910F91FF90EF90DF90D8
S11307E0CF90BF90AF909F908F900F900FBE0F90BF
S11307F01F90189578941F920F920FB60F921124A0
S11308000F900FBE0F901F90189578941F920F921F
S11308100FB60F9211240F900FBE0F901F901895D2
S113082078941F920F920FB60F9211242F933F9337
S11308308F939F93AF93BF932FB7F89433278091EF
S11308405E0390915F03A0916003B09161030196F0
S1130850A11DB11D80935E0390935F03A093600379
S1130860B09361032FBFBF91AF919F918F913F913F
S11308702F910F900FBE0F901F9018951F920F92FB
S11308800FB60F9211242F933F934F935F936F935F
S11308907F938F939F93AF93BF93EF93FF93809135
S11308A0B0008093B0008091B60081FDFCCF8091B0
S11308B0B30099270196AA27BB27209122023091E1
S11308C023024091240250912502280F391F4A1F08
S11308D05B1F2093220230932302409324025093FF
S11308E0250278940E947C02FF91EF91BF91AF9111
S11308F09F918F917F916F915F914F913F912F9134
S11309000F900FBE0F901F90189521E0209376034F
S11309102093EB022091840030918500BC01C90131
S11309200E94910108951F93982F1FB7F894809106
S11309300D02823099F580910702891779F580912B
S1130940050220E030E08F3F11F421E030E0232B5A
S1130950F1F49FEF909307028F3F19F42FEF30E0EB
S11309600DC0282F3327F901E45CFD4F808180936B
S113097005028F3F11F4909306029083209339026D
S113098081E080930D0280E00E94B20005C08FEFE9
S11309908093070210920D0221E001C020E0812F14
S11309A099278FBF90E0213009F491E081E09827E6
S11309B0892F99271F9108950F931F93CF93DF9346
S11309C0182F0FB7F89480910E02882311F40E9417
S11309D04101802F99278FBF8FB7F894C82FDD2747
S11309E02C2F80910E02882361F481E080930E0203
S11309F01093ED0289E00E94B200CFBF80E090E046
S1130A0021C0E12FFF27E451FD4F80818F3F89F4FE
S1130A10E0910902E11789F40CC01093080204C0A4
S1130A20FF27E451FD4F10831093090280E090E00A
S1130A3002C085E090E02FBF05C0809108028F3F7F
S1130A4079F7EBCFDF91CF911F910F9108958FB775
S1130A50F894282F3327922F80910A02882331F4A7
S1130A6080910E02823011F42FBF13C09FBF8FB745
S1130A70F894282F332780910E02882369F482E0AA
S1130A8080930E0210920A022FBF0E944101209A05
S1130A90289A81E090E008952FBF80E00E94DC0452
S1130AA080E090E008954F925F926F927F928F92D0
S1130AB09F92AF92BF92CF92DF92EF92FF920F93E9
S1130AC01F93CF93DF932C0180911002882309F0A8
S1130AD04DC18091C303853009F048C10E942705A8
S1130AE0882309F443C18091AA03882309F03EC1F5
S1130AF0E201E096F20180A982FD02C090E003C009
S1130B00F20192A99F7080912403981781F0909329
S1130B102403289885EC8EBD0DB407FEFDCF8EB559
S1130B2090689EBD0DB407FEFDCF8EB5289A420194
S1130B300894811C911CF4018181F201218140E01F
S1130B409927982F88273327822B932B87749C7C93
S1130B508154984809F441E0442301F1289886E837
S1130B608EBD0DB407FEFDCF8EB51EBC0DB407FEC1
S1130B70FDCF8EB5289A99278F71907020914E02DF
S1130B8040913D02240F312D311D43E035952795C9
S1130B904A95E1F7281739070CF4E8C0289882EC45
S1130BA08EBD0DB407FEFDCF8EB589E08EBD0DB4AC
S1130BB007FEFDCF8EB5289A0E9465017B018C014A
S1130BC0888184FD03C0C0E0D0E006C0F2018081CA
S1130BD08550E201C80FD11D289881E88EBD0DB45F
S1130BE007FEFDCF8EB51EBC0DB407FEFDCF8EB53E
S1130BF0289A8F71893021F087E08093C303B6C0AF
S1130C008FB7F89499272F9A20918400309185000A
S1130C108FBF2F98289880E68EBDF20190810DB485
S1130C2007FEFDCF8EB59EBD792F7250773010F43C
S1130C30672F01C067E0F401962F41910DB407FEC0
S1130C40FDCF8EB54EBD9150C1F76150F401E60F52
S1130C50F11D6F5F31962E193F092E553F4F390113
S1130C60882477FC8094982C6E0C7F1C801E911E27
S1130C70209719F4972F961B1FC088819981AA8108
S1130C80BB8186199709A809B9098B83292F3A2FA3
S1130C904B2F55272A839D014427552729838B2FC2
S1130CA09927AA27BB278883E5CF20810DB407FEA7
S1130CB0FDCF31968EB52EBD9150B8F70DB407FE19
S1130CC0FDCF8EB5289A289882EC8EBD0DB407FE10
S1130CD0FDCF8EB586E08EBD0DB407FEFDCF8EB57B
S1130CE0289A209779F18881E9802A81AB8033277B
S1130CF044275527542F432F322F22279927AA27D9
S1130D00BB27B82FAA2799278827FF240027112754
S1130D108701FF24EE248E299F29A02BB12BBB240D
S1130D20CC24DD248A299B29AC29BD29282B392BE5
S1130D304A2B5B2B260D371D481D591D28833983EB
S1130D404A835B83C2010E948A01C2010E948F010F
S1130D50FC01608271828282938286E08093C30365
S1130D6084E08093100280E090E002C085E090E08F
S1130D70DF91CF911F910F91FF90EF90DF90CF9073
S1130D80BF90AF909F908F907F906F905F904F90A7
S1130D9008952FB7F8943327809333022FBF85E04B
S1130DA00E94B20008959C0180910F02882319F0DB
S1130DB085E090E008953093700320936F0381E001
S1130DC080930F021092230385E00E94B20080E01A
S1130DD090E00895CF93DF93EC018FE38A878091AD
S1130DE04F028F5F80934F028B83809120029091FA
S1130DF02102892B11F025E017C088A599A5892B1C
S1130E0021F061E0CE010E949000CE010E94D30641
S1130E109927282F882341F4D0932102C0932002DC
S1130E201092410210924002822F9927DF91CF91B4
S1130E3008951F93CF93DF93182FFA01422F2D317A
S1130E4018F086E090E08AC0DF011196ED018981F7
S1130E50218150E09927982F88273327822B932BC1
S1130E6087749C7C8154984809F451E0552329F4F3
S1130E7081E4818388E8ED018983435F40832FB750
S1130E80F894332780910202909103022FBF808748
S1130E90892F992781872FB7F894332780910402EB
S1130EA02FBF99278483158213876683872F9927F9
S1130EB087838FB7F894282F332780910D028823D6
S1130EC071F482E080930D02109207022FBFCF01CC
S1130ED00E94EA069927182F882399F00FC02FBF84
S1130EE0F0933B02E0933A028FB7F894C82FDD27C2
S1130EF02C2F80910D02882399F406C080E00E9473
S1130F009304812F99272AC081E080930D021092C7
S1130F10390280E00E94B200CFBF80E090E01EC0A2
S1130F2080913C028F3F89F4E0910602EE2369F040
S1130F3010C01092050204C0FF27E45CFD4F10822C
S1130F401092060280E090E002C085E090E02FBF9E
S1130F5005C0809105028F3F79F7EBCFDF91CF91E8
S1130F601F9108951F93CF93DF93182FEB01E82F60
S1130F70FF27EE0FFF1FE45AFC4F118210821092DC
S1130F800B02E0915C03F0915D03309721F08091B6
S1130F90BC0380FF0FC081E080930B0203C08BE091
S1130FA00E94B2001123C1F4C757D340A9F4109290
S1130FB00C0212C020812D50332767817727762FAA
S1130FC0662786819927682B792BAF0183850E9438
S1130FD01907882339F3E3CFDF91CF911F91089547
S1130FE01F93CF93DF93182FC0912002D091210239
S1130FF0109221021092200280916B038D7F8093C6
S11310006B03809140029091410299A788A78A8539
S11310108F3389F480E00E94930480910B0288232B
S113102051F460915C0370915D036C177D0719F4B2
S1131030412F0E94B207DF91CF911F910895AF9283
S1131040BF92CF92DF92EF92FF920F931F93CF93B1
S1131050DF938091AA03882309F413C10E94270512
S1131060882309F40EC18FB7F8949927C091E90237
S1131070D091EA028FBF1092AA0328988FE88EBD00
S11310800DB407FEFDCF8EB51EBC0DB407FEFDCF1B
S11310908EB5289A982FA82EBB24A0FE0CC0809150
S11310A01002833011F0873031F485E08093C3035C
S11310B088E080931002A2FE5FC080911002863007
S11310C019F41092100203C0882309F055C094301B
S11310D009F041C0289886E88EBD0DB407FEFDCF07
S11310E08EB51EBC0DB407FEFDCF2EB5289A2F7108
S11310F080913D02982F96959695322F391B830F38
S113110080933D02E0911D02F0911E0280A98B7F25
S1131110886080AB22AB0E9465016B017C01009169
S11311201D0210911E02C8010E948A01C8010E947A
S11311308F01FC01CC19DD092797CE01AA2797FD61
S1131140A095BA2F8C0D9D1DAE1DBF1D808391836C
S1131150A283B3830EC0E0911D02F0911E0280A908
S1131160877F80ABE0911D02F0911E0280A98D7FE4
S113117080AB85E080931002A3FE83C080911002AF
S1131180843009F04BC085E08093C30310921002B1
S113119080914902833019F41092490272C0E0919F
S11311A02103F0912203828121819927982F882796
S11311B03327822B932B85FF29C087749C7C815411
S11311C0984821F5878126819927982F88273327E6
S11311D0822B932B8F5F9F4FC9F090E08091EB029D
S11311E0882309F491E0992389F012E0109376039F
S11311F081E08093EB02809184009091850061EE00
S113120072E00E949101109349023BC0109249027E
S11312101092C40380E00E94C90633C0853089F56A
S11312208091C303873091F4289882EC8EBD0DB46D
S113123007FEFDCF8EB586E08EBD0DB407FEFDCF53
S11312408EB5289A85E08093C30317C020914E027F
S1131250289886E88EBD0DB407FEFDCF8EB51EBC62
S11312600DB407FEFDCF8EB5289A8F71922F9695F7
S11312709695891B280F20934E0289E080931002D3
S113128008C090911002992309F4E2C2993009F040
S11312900FC2289880E28EBD0DB407FEFDCF8EB537
S11312A01EBC0DB407FEFDCF8EB5482F5527433025
S11312B008F49EC3842F99278A970CF099C31EBC07
S11312C0E0911D02F0911E024083542F525057307A
S11312D010F4452F01C047E09F012F5F3F4F942F2B
S11312E0F90160E070E00DB407FEFDCF8EB51EBCC1
S11312F0808381916827062E6295607F6025072E82
S1131300762F62956F700626669576276727660F97
S1131310660F660F6025915031F74150D901A40F33
S1131320B11D4F5F1196E0911D02F0911E02818163
S1131330282F3327277030702230310509F491E0CB
S11313409923B9F080914902823081F48381E0913C
S11313502103F09122039381891741F490E0223014
S1131360310509F091E081E098270EC080E090E01B
S11313700DC08FB7F894282F332790E08091620333
S1131380833008F491E02FBF892F9927892B09F422
S11313902FC3952F941B18C00DB407FEFDCF8EB537
S11313A01EBC8C938D916827062E6295607F602504
S11313B0072E762F62956F70062666957627672727
S11313C0660F660F660F6025915030F70DB407FE67
S11313D0FDCF8EB51EBC9B012827022E2295207FAF
S11313E02025032E322F22952F7002262695322790
S11313F02327220F220F220F20250DB407FEFDCF35
S11314008EB51EBC2827022E2295207F2025032E70
S1131410322F22952F700226269532272327220F5A
S1131420220F220F20250DB407FEFDCF8EB5E091CB
S11314301D02F0911E0281AB289A85E08093C303BC
S113144010921002232B09F0FFC1E0901D02F090CE
S11314501E0257010894A11CB11CF701818190E080
S11314608770823009F491E0292F3327122F80915D
S113147049028230C9F480916F008D7F80936F00A0
S11314801092EB02E0912103F091220380A9222320
S113149011F0816001C08E7F80AB109249021092DE
S11314A0C40380E00E94C906112309F0FCC0C701EF
S11314B00E94BB018823A9F085E08093270382E082
S11314C08093280310922903F501828180932A03D3
S11314D087E293E00E945305882319F483E0809304
S11314E049020091840010918500C7010E94BB014C
S11314F0882311F0045E1C4F1093430200934202B0
S11315008091840090918500081B190BC801101666
S113151011066CF42091C403222331F40E94850443
S113152080E88093C40303C020682093C403F501BA
S1131530808527819927582F44273327422B532B03
S113154080912602282F3327F901EE0FFF1FE5555E
S1131550FC4F8081918170916E038417950769F423
S1131560F901EB53FC4F8081871709F467C0872F7B
S11315708F5F80936E0380831DC000E010E080E0E5
S113158090E0CBEAD3E0E5ECF3E0DF01682F9C01C7
S1131590888199818417950779F420932602909184
S11315A06E038C91891709F449C0892F8F5F80934A
S11315B06E038C9300E829C08081972F981B09172C
S11315C010F4092F122F6F5FC9010196119622960C
S11315D0319685309105D1F66530B9F41093260221
S11315E0A12FBB27FD01EE0FFF1FE555FC4F5183D3
S11315F0408380916E038F5F80936E03FD01EB53F4
S1131600FC4F8083A553BC4F1C9290916E03892F8D
S11316108F778F3779F40F3768F0E5ECF3E0292FF3
S1131620207880818F6789132083319633E0EA3CE8
S1131630F307B9F780912602282F3327F501928109
S1131640A22FBB27FD01E553FC4F808180FF07C01B
S1131650FD01EF58FC4F8081981729F102C0816089
S11316608083AF58BC4F9C93CFB6F89480916203AB
S11316708330B0F4E0911F02E80FE33008F0E35048
S1131680FF27EE0FFF1FED5EFD4F00811181F182F8
S1131690E0828F5F8093620386E00E94B20078014B
S11316A08C2D99278FBFF0921E02E0921D02C3C0B9
S11316B0892F8150833008F09CC081508230E0F43F
S11316C03091C3033130C1F420E08091EB028823D0
S11316D009F421E0222381F02F9883E0809376039C
S11316E03093EB0280918400909185006BE273E06B
S11316F00E94910182E068C0933009F042C0809159
S1131700C303833009F097C00E9427058823C9F1D9
S113171028988FE88EBD0DB407FEFDCF8EB51EBC94
S11317200DB407FEFDCF8EB5289A809181008064A8
S11317308093810080E286BB80916F0080628093F9
S11317406F0090913802289888EC8EBD0DB407FE86
S1131750FDCF8EB590669EBD0DB407FEFDCF8EB550
S1131760289A289882EC8EBD0DB407FEFDCF8EB565
S113177086E08EBD0DB407FEFDCF8EB5289A84E0B9
S113178023C0809110028150823000F58091C30300
S11317908530E1F40E9427058823C1F0289882EC63
S11317A08EBD0DB407FEFDCF8EB583E08EBD0DB4A6
S11317B007FEFDCF8EB5289A80916F008F7D8093B0
S11317C06F001092AA0383E08093C30390911002E8
S11317D0913041F48091C3038330B1F52F9A9093F3
S11317E0C30325C0923039F58091C303833061F57A
S11317F01EC0973001F50E9427058823E1F09091DF
S11318003802289888EC8EBD0DB407FEFDCF8EB546
S113181090669EBD0DB407FEFDCF8EB5289A8091CB
S1131820C303853021F484E08093C30304C088E0BB
S11318308093100204C080911002883029F4109221
S1131840100284E00E94B20080911002882331F5D6
S11318508091C3038530F9F48091AA038823D9F4D5
S1131860809149028823B9F48091C403882399F4B0
S113187090E08091EB02882309F491E0992359F0D8
S113188080910F02813039F485E00E94B20080918A
S11318901002882319F480E00E94E2008091EB0298
S11318A0823009F098C01092EB02C0907603F2E007
S11318B0CF1609F46CC023E0C21609F470C031E0FD
S11318C0C31609F088C020914202309143028091EE
S11318D08400909185004091C403403859F41092DB
S11318E0C40380910F02813009F075C085E00E9425
S11318F0B20071C08901081B190B47FF03C0101601
S11319001106ECF0C0914702D0914802809149023F
S11319108823A9F4CE010E9453059927882351F402
S113192088A98E7F88ABC0924902D0932203C093CA
S1131930210329C09927F82E882329F102C065E0E4
S1131940F62E2091C403822F99278F77019759F49B
S1131950207822602093C40380E198E00E94E8018B
S11319600E94850438C027FF0AC0101611063CF4F3
S113197080E88093C403C8010E94850402C01092C9
S1131980C4038F2D09C083E08093C40324C0109244
S113199049021092C40380E00E94C9061CC08091D1
S11319A0C303823019F4C092C30313C080911002A0
S11319B0863079F410921002289881E88EBD0DB417
S11319C007FEFDCF8EB51EBC0DB407FEFDCF8EB550
S11319D0289A0E94210D8FB7F894282F33278091DD
S11319E03502813061F081E0809335022FBF31CB25
S11319F0289A85E08093C3031092100225CF109299
S1131A0035022FBFDF91CF911F910F91FF90EF907F
S1131A10DF90CF90BF90AF9008958FB7F894282FA0
S1131A20332780913502815080933502803811F03C
S1131A302FBF089581E0809335022FBF0E941F08B5
S1131A4008958FB7F894282F33278091350288237F
S1131A5029F08068809335022FBF089581E0809338
S1131A6035022FBF0E941F08089578941F920F9289
S1131A700FB60F9211242F933F934F935F936F935D
S1131A807F938F939F93AF93BF93EF93FF93809133
S1131A9084009091850020918600309187008FB753
S1131AA0F89499273093EA022093E90221E02093E5
S1131AB0AA038FBF0E94210DFF91EF91BF91AF91B7
S1131AC09F918F917F916F915F914F913F912F9152
S1131AD00F900FBE0F901F90189578941F920F923D
S1131AE00FB60F9211242F933F934F935F936F93ED
S1131AF07F938F939F93AF93BF93EF93FF938091C3
S1131B006F008D7F80936F0078949FB7F8948091D5
S1131B10EB02813019F482E08093EB02892F99273C
S1131B208FBF0E94210DFF91EF91BF91AF919F91C3
S1131B308F917F916F915F914F913F912F910F9072
S1131B400FBE0F901F9018951F938FB7F894992785
S1131B50209135022F5F209335028FBF80910F02B1
S1131B60882311F015E023C0809110028823E1F44A
S1131B708091C303813049F490E08091EB02882383
S1131B8009F491E0992381F005C0853019F489E0C6
S1131B9090E00CC083E0809310020E94210D84E049
S1131BA080930F0210E003C085E090E0182F0E949C
S1131BB00D0D812F99271F9108952F923F924F92D7
S1131BC05F926F927F928F929F92AF92BF92CF92C9
S1131BD0DF92EF92FF920F931F93CF93DF93CDB7D2
S1131BE0DEB729970FB6F894DEBF0FBECDBF8530A0
S1131BF009F408C1863090F4823009F473C083304C
S1131C0030F4882341F1813009F0BEC355C08330DC
S1131C1009F49BC0843009F0B7C3E4C0883009F4E8
S1131C20DBC2893038F4863009F487C1873009F083
S1131C30ABC376C28A3039F08A3008F4E2C28B3002
S1131C4009F0A2C390C38091BC03882309F49CC308
S1131C5040E051E067C32FB7F894332780913902ED
S1131C608093070282E080930D022FBF80910702C8
S1131C70882309F089C380913A0290913B020E9423
S1131C80EA06082F1127002309F47EC380E00E948E
S1131C90930420913A0230913B0280910B028823F5
S1131CA009F072C360915C0370915D03621773075E
S1131CB009F06AC3402F62C3E0912002F09121022F
S1131CC080A591A5892B21F061E0CF010E949000AD
S1131CD080912002909121020E94D306882309F466
S1131CE053C325C180913402882361F52091B50343
S1131CF03091B6034091B7035091B803EFB7F8940D
S1131D00FF276091190270911A0280911B02909131
S1131D101C02E090BD03F090BE030091BF0310913C
S1131D20C0036E0D7F1D801F911FEFBF2093B5036D
S1131D303093B6034093B7035093B8031092340220
S1131D400E9408030E940F023AC00E940F027B0106
S1131D508C018FB7F8949927109246028FBF809117
S1131D606B0381FF11C38091630390916403A0917D
S1131D706503B0916603A8019701281B390B4A0B30
S1131D805B0BDA01C901209167033091680340912C
S1131D90690350916A03281B390B4A0B5B0B2F3FD5
S1131DA06FEF36076FEF46076FE7560709F4ECC28B
S1131DB012161306140615062CF0C801B7010E946A
S1131DC03802E2C22093B5033093B6034093B703BD
S1131DD05093B80381E080933402C801B7010E9494
S1131DE00803D2C280910F0210920F02843009F4CA
S1131DF0CBC2853009F4C8C2863009F4C5C28093C9
S1131E000F02C2C28FB7F8949927109133028FBF83
S1131E1080910F02823011F4112339F08091230351
S1131E208F5F80932303863020F083E080930F023A
S1131E303CC08FB7F8949927209135022F5F2093E7
S1131E4035028FBF20916F03309170038091C403DA
S1131E508823D1F490E08091EB02882309F491E087
S1131E60992391F0309348022093470281E08093B4
S1131E70C40386EB93E20E94E8010E94850482E099
S1131E8080930F0210E00AC080912303853011F47F
S1131E9083E001C081E080930F0215E00E940D0DE4
S1131EA080910F02833009F06FC210920F02E0910B
S1131EB06F03F091700320914002309141022F5F33
S1131EC03F4F309341022093400280A980FF02C01B
S1131ED080E030C0E0912002F091210280A591A51C
S1131EE02817390730F5CF010E940B028C01892B8A
S1131EF0F1F00E940F026093630370936403809374
S1131F00650390936603C801AA27BB2780936703E0
S1131F1090936803A0936903B0936A0380916B0361
S1131F20836080936B0383E00E94B2002DC281E042
S1131F30FBCF812F0E94F00727C28FB7F894282F78
S1131F40332780916203882309F4EAC1E0911F02D8
S1131F50FF27EE0FFF1FED5EFD4FE080F1802FBFE6
S1131F60F70182858F3309F0BBC0638587812681A1
S1131F709927582F44273327422B532B8FB7F89494
S1131F80992720910202309103028FBF4217530711
S1131F9021F04F5F5F4F09F0A7C0673009F0A4C07C
S1131FA0F701818520859927982F88273327822B4D
S1131FB0932B90933F0280933E0201970A9708F077
S1131FC093C02CE030E0E20EF31EF0924502E09262
S1131FD0440244EF5FEFE40EF51E2FB7F894332765
S1131FE082B111E0812782B92FBFE0914402F091C0
S1131FF04502808121819927782F66273327622B18
S1132000732B80910002909101026817790709F0FF
S11320106BC0848125819927982F88273327822BA9
S1132020932B892B09F060C043E853E050932603B7
S11320304093250360938403872F99278093830318
S113204020913E0230913F0220938603E32FFF2725
S11320506E2FE09385031093880310928703809179
S11320600C02882309F040C020937D03E0937E0393
S113207087E08093820380915C0390915D03892BB8
S113208099F54C50504050935D0340935C0383E1B9
S11320908093770380910B028823C1F07727762FF2
S11320A06627822F9927682B792B10920B0226E042
S11320B087E00E9419079927882341F010930B02A7
S11320C010925D0310925C03882371F481E0809385
S11320D00C028FB7F894992712981198109803C09E
S11320E08FB7F89499278FBF9FB7F89480911F02F8
S11320F0E82FFF27EE0FFF1FED5EFD4FF182E08218
S11321008F5F80931F02833010F010921F02809122
S11321106203815080936203892F99278FBF0DCF6B
S11321205FB75983F89420904A0230904B02409054
S11321304C0250904D02662477248824AEE4AA2EE3
S1132140F3E8BF2ECC24DD24EE24FF2400E010E0CD
S1132150222D332D442D552D662D772D882D90E07D
S11321600E947F132A833B834C835D836E837F832A
S113217088879987822E932EA42EB52E24013501AB
S113218000E20E947D14A22EB32EC42ED52EA301EC
S1132190920156954795379527952A0D3B1D4C1D61
S11321A05D1D57FF05C05F772F5F3F4F4F4F5F4F58
S11321B020934A0230934B0240934C0250934D02B9
S11321C06981862F99278FBF8FB7F8949927309309
S11321D037022093360213C08FB7F89499271092D0
S11321E06D0310926C031092C2031092C1031092FB
S11321F012021092110210925B0310925A038FBFC5
S1132200C3C02FB7F89433278091ED0280930A025C
S113221082E080930E022FBF80910A02882309F086
S1132220B3C0209A289A8091C303882309F075C00B
S11322308EEF91E0019701960197E1F716982F9898
S113224086E090E0019701960197E1F7169A2898A5
S113225083EC8EBD0DB407FEFDCF8EB51EBC0DB450
S113226007FEFDCF8EB5289A289882EC8EBD0DB45A
S113227007FEFDCF8EB588E08EBD0DB407FEFDCF01
S11322808EB5289A8EEF91E0019701960197E1F7B8
S113229028988EEC8EBD0DB407FEFDCF8EB58DE46F
S11322A08EBD0DB407FEFDCF8EB5289A289889EC13
S11322B08EBD0DB407FEFDCF8EB587EC8EBD0DB47B
S11322C007FEFDCF8EB5289A289885EC8EBD0DB4F7
S11322D007FEFDCF8EB580E88EBD0DB407FEFDCFA1
S11322E08EB5289A109224038BE0809338022898A4
S11322F088EC8EBD0DB407FEFDCF8EB58BE68EBD8A
S11323000DB407FEFDCF8EB5289A2F9A81E08093F5
S1132310C30380E00E94E20037C00E94210D34C054
S11323202FBF32C09091BC03852F8923B9F0E42FCD
S1132330FF27EE0FFF1FE45AFC4F208131811182E9
S11323401082852F809598239093BC03442331F405
S113235027573340B1F410920C0213C04F5F48303A
S113236098F4550FDFCF80910B02E82FFF27EE0F73
S1132370FF1FE45AFC4F6081718141E00E94B20763
S113238003C0550F41E0CECF29960FB6F894DEBFB7
S11323900FBECDBFDF91CF911F910F91FF90EF90B2
S11323A0DF90CF90BF90AF909F908F907F906F9071
S11323B05F904F903F902F9008958091B9038F3F85
S11323C0B1F0282F3327F901E95DFD4F8081809317
S11323D0B9038F3F11F48093CA038FEF80832F3F9B
S11323E031F0822F0E94DD0D81E090E0089580E0BD
S11323F090E008951F931FB7F8944CE050E06FEFFE
S113240070E087E292E00E946A158FEF8093B9032F
S11324108093CA0356985E9854985C9880916F0094
S11324208F7D80936F00209A289A279A2F980E9A6E
S1132430169A8EEE92E090931E0280931D021092E3
S11324404E028AE580933D0281E08093810080E220
S11324508093B60083E08093B100809184009091D2
S113246085004AE7209184003091850028173907B8
S113247008F44150442311F0C901F4CF9091B20003
S11324808091B2008917E1F3209184003091850096
S11324909091B2008091B2008917E1F38091840099
S11324A090918500821B930B4096B5E09695879595
S11324B0BA95E1F79093BB038093BA031092B100ED
S11324C08091B10080938100809181008093B60057
S11324D01092B20010928500109284008FEF87BB97
S11324E087B386BB8091B6008571E1F70A9A099A91
S11324F0089A129A119A109A18B88FEF87B90C9803
S11325001498109285001092840080916F0081606D
S113251080936F0080918100887F82608093810026
S113252081E085BF0E94DD118823E1F78FEF80935E
S1132530EC0280E00E94DC04209100023091010250
S11325402F5F3F4FC901AA27BB2780934A0290936C
S11325504B02A0934C02B0934D0280E592E090931D
S1132560140280931302C39690931602809315026B
S113257086EB92E090931802809317028091B60044
S113258080628093B6008091B60081FDFCCF82E02A
S11325908093B0008091B60080FDFCCF83E08093EF
S11325A0B1008091B60083FDFCCF86EE8093B3002A
S11325B0809170008260809370000E947C028FEF93
S11325C09FEF9093AC038093AB039093AE038093FF
S11325D0AD039093B0038093AF039093B2038093C1
S11325E0B1039093B4038093B30380910002829566
S11325F0807F80934F028FEF80933C020E94DD1115
S11326008823E1F7812F99278FBF78940E94A40D26
S11326108FB7F894482F552757C080917000992799
S113262083709070892B19F4E5E0F0E014C0809178
S1132630B6008A71E1F78091B3009091B200891BD2
S11326408C3038F08091B200853F18F4E3E0F0E07C
S113265002C0E2E0F0E080916E00867009F580919E
S11326606F008E72E9F4809171008E72C9F40CB41B
S113267007FC16C08091C100807E91F48091C9004E
S1132680807E71F48091BC0082FD0AC080917A0042
S113269087FF03C081E090E005C085E090E002C0C0
S11326A080E090E023B78E1708F4E82FFF27E45367
S11326B0FF4FE491207F2160E22BE3BF789488955B
S11326C0F89483B78E7F83BF8091B9038F3F09F459
S11326D0A4CF282F3327F901E95DFD4F8081809332
S11326E0B9038F3F11F48093CA038FEF80832F3F88
S11326F009F493CF4FBF822F0E94DD0D89CFACE246
S1132700B0E0E5E8F3E10C943315222E332E442E89
S1132710552E662E772E882E992EFE013196A8E02E
S11327201192AA95E9F729823A824B825C826D82E2
S11327307E828F829886FE013996B8E01192BA950E
S1132740E9F7A986BA86CB86DC86ED86FE860F87F6
S1132750188B89819A81AB81BC8189A79AA7ABA781
S1132760BCA77C018D018FEF9FEFA0E0B0E0E822D1
S1132770F9220A231B2389A59AA5ABA5BCA51D0193
S11327804424552489859A85AB85BC858DA39EA355
S1132790AFA3B8A75C016D018FEF9FEFA0E0B0E09D
S11327A0A822B922CA22DB228DA19EA1AFA1B8A57D
S11327B03D0188249924C801B701A60195010E940E
S11327C0141569A37AA38BA39CA3C801B701A40120
S11327D093010E9414157B018C01C201B101A60171
S11327E095010E9414155B016C01C201B101A401A1
S11327F093010E9414153B014C01EA0CFB1C0C1DB7
S11328001D1D89A19AA1ABA1BCA19D0144275527F7
S11328102E0D3F1D401F511F2A153B054C055D051C
S113282040F480E090E0A1E0B0E0680E791E8A1EDA
S11328309B1ECA01AA27BB27860D971DA81DB91D7B
S11328408D8F9E8FAF8FB8A3A9013327222789A12B
S11328509AA1ABA1BCA1A070B070280F391F4A1F68
S11328605B1F298F3A8F4B8F5C8FA98CBA8CCB8CD2
S1132870DC8CED8CFE8C0F8D18A1FE01719698E016
S113288011929A95E9F7ED8AFE8A0F8B188F2D81A4
S11328903E814F8158856DA17EA18FA198A50E948C
S11328A014153B014C012D853E854F85588969A53A
S11328B07AA58BA59CA50E9414152D893E894F8964
S11328C0588D260F371F481F591F260D371D481DC9
S11328D0591D2D8B3E8B4F8B588F6D887E888F882A
S11328E0988C2A2D3B2D4C2D5D2D662D772D882D12
S11328F0992DE2E1AC960C944F15A0E1B0E0E3E829
S1132900F4E10C943315222E332E442E552E662ECC
S1132910772E882E992E002309F466C088E0FE01E4
S1132920319611928A95E9F729833A834B835C8324
S11329306D837E838F829887E0E2E01B1E16CCF5C0
S11329402D813E814F815885602F772767FD7095D3
S1132950DA01C901062E04C0B695A7959795879507
S11329600A94D2F78D879E87AF87B88B04C0220F55
S1132970331F441F551FEA95D2F789819A81AB8191
S1132980BC8104C0B695A795979587956A95D2F7AB
S1132990282B392B4A2B5B2B29873A874B875C875B
S11329A029843A844B845C846D847E848F849888E3
S11329B01BC01D861E861F86188A2E2F332727FDCF
S11329C03095309521953F4F8D819E81AF81B8859B
S11329D004C0B695A795979587952A95D2F78987C8
S11329E09A87AB87BC87DCCF222D332D442D552D00
S11329F0662D772D882D992DE2E160960C944F1564
S1132A00AA1BBB1B51E107C0AA1FBB1FA617B70710
S1132A1010F0A61BB70B881F991F5A95A9F780952C
S1132A209095BC01CD010895629FD001739FF00180
S1132A30829FE00DF11D649FE00DF11D929FF00D4A
S1132A40839FF00D749FF00D659FF00D9927729F81
S1132A50B00DE11DF91F639FB00DE11DF91FBD010C
S1132A60CF01112408952F923F924F925F926F925B
S1132A707F928F929F92AF92BF92CF92DF92EF920A
S1132A80FF920F931F93CF93DF93CDB7DEB7CA1B8B
S1132A90DB0B0FB6F894DEBF0FBECDBF09942A88B6
S1132AA0398848885F846E847D848C849B84AA845E
S1132AB0B984C884DF80EE80FD800C811B81AA81EB
S1132AC0B981CE0FD11D0FB6F894DEBF0FBECDBFB6
S1132AD0ED010895DC0101C06D9341505040E0F7D1
S1072AE00895FFCF83
S10F2AE40100010022FFFFFFFFFFFF01C3
S9030000FC
