S01700006275696C642F697269732F6D61696E2E7372656343
S11300000C947C010C949B010C949B010C949B011B
S11300100C949B010C949B010C949B010C949B01EC
S11300200C949B010C949B010C949B010C949B01DC
S11300300C949B010C94740A0C949B010C94A505DC
S11300400C947B0C0C94430C0C947D060C94880645
S11300500C9493060C949B010C949B010C949B01AF
S11300600C94C6050C9464080C949B010C94E7084A
S11300700C949B010C949B010C949B010C94410ADD
S11300800C94200A0C942B0A0C94360A0C94540AEF
S11300900C94030A0C949B010C94150A0C949B0178
S11300A00C949B010C949B010C949B010C949B015C
S11300B00C949B010C949B010C949B010C949B014C
S11300C00C949B010C949B010C949B01420ED70E43
S11300D0A60F8114A114B814EB1438154815DD15B6
S11300E024162E164216D116A717C717C917D417E8
S11300F0141800002110422063308440A550C660CB
S1130100E770088129914AA16BB18CC1ADD1CEE1D0
S1130110EFF13112100273325222B5529442F77247
S1130120D662399318837BB35AA3BDD39CC3FFF320
S1130130DEE36224433420040114E664C774A44457
S113014085546AA54BB528850995EEE5CFF5ACC570
S11301508DD55336722611163006D776F666955627
S1130160B4465BB77AA719973887DFF7FEE79DD7C0
S1130170BCC7C448E5588668A778400861180228B7
S11301802338CCC9EDD98EE9AFF9488969990AA910
S11301902BB9F55AD44AB77A966A711A500A333A87
S11301A0122AFDDBDCCBBFFB9EEB799B588B3BBB60
S11301B01AABA66C877CE44CC55C222C033C600C17
S11301C0411CAEED8FFDECCDCDDD2AAD0BBD688DB0
S11301D0499D977EB66ED55EF44E133E322E511E67
S11301E0700E9FFFBEEFDDDFFCCF1BBF3AAF599F00
S11301F0788F8891A981CAB1EBA10CD12DC14EF1A0
S11302006FE18010A100C230E32004502540467005
S11302106760B9839893FBA3DAB33DC31CD37FE330
S11302205EF3B1029012F322D23235421452776255
S11302305672EAB5CBA5A89589856EF54FE52CD500
S11302400DC5E234C324A0148104667447642454A5
S11302500544DBA7FAB79987B8975FE77EF71DC710
S11302603CD7D326F2369106B016576676761546F5
S113027034564CD96DC90EF92FE9C899E9898AB960
S1130280ABA94458654806782768C018E108823845
S1130290A3287DCB5CDB3FEB1EFBF98BD89BBBAB70
S11302A09ABB754A545A376A167AF10AD01AB32A95
S11302B0923A2EFD0FED6CDD4DCDAABD8BADE89DC0
S11302C0C98D267C076C645C454CA23C832CE01CE5
S11302D0C10C1FEF3EFF5DCF7CDF9BAFBABFD98F50
S11302E0F89F176E367E554E745E932EB23ED10E35
S11302F0F01E00020E060C0411241FBECFEFD1E243
S1130300DEBFCDBF12E0A0E0B2E0E4E1FAE300E03A
S11303100BBF02C007900D92A231B107D9F719E0C3
S1130320A2E1B2E001C01D92AC34B107E1F70E9432
S1130330A8180C94091D0C9400008FB7F894992701
S113034008958FBF08958FB7F894992722B131E0AB
S1130350232722B98FBF0895282F9FB7F894E82F39
S1130360FF27ED5BFD4F80818F3F81F4E0914109D0
S1130370E21771F40BC020932C0904C0FF27ED5B36
S1130380FD4F20832093410920E007C025E005C0EC
S113039080912C098F3F91F7EECF892F99278FBF3A
S11303A0822F9927089582E00E94AC01992708952D
S11303B09FB7F89480913F048A3011F020E006C082
S11303C020E080917D02843009F421E0892F99276F
S11303D08FBF222349F08FE00E94AC018FB7F894BD
S11303E099271092140206C08FB7F894992721E038
S11303F0209314028FBF08952FB7F8943327809366
S1130400C600E0ECF0E08081806480832FBF089513
S1130410FC016115710519F481E090E00895809163
S11304202F0390913003892B19F085E090E0089513
S113043070931C0960931B09F0933003E0932F031E
S113044010927F0210927E0281E08093800280915C
S1130450C00080648093C0008091C1008064809358
S1130460C100808121E030E030937F0220937E023E
S11304700E94FC0180E090E00895809125028E7F27
S1130480809325028EE78093570261E070E087E550
S113049092E00E940802992708951F931FB7F894C9
S11304A080913A09882341F48DE00E94AC018823AD
S11304B019F481E080933A09812F99278FBF1F9106
S11304C00895882319F08CB5806402C08CB58F7BA5
S11304D08CBD08950F931F93982F1FB7F8948091A4
S11304E01302823099F580910A02891779F5809177
S11304F0080220E030E08F3F11F421E030E0232BAC
S1130500F1F49FEF90930A028F3F19F42FEF30E03C
S11305100DC0282F3327F901E45DFC4F80818093BF
S113052008028F3F11F490930902908320932E03C5
S113053081E0809313028CE00E94AC0105C08FEF30
S113054080930A021092130201E001C000E0812F9F
S113055099278FBF1FB7F89480911302882311F451
S11305600E946102812F99278FBF90E0013009F426
S113057091E081E09827892F99271F910F91089581
S11305802F923F924F925F926F927F928F929F929F
S1130590AF92BF92CF92DF92EF92FF920F931F938D
S11305A0CF93DF93CDB7DEB729970FB6F894DEBFAC
S11305B00FBECDBF6FB76983F89420908602309048
S11305C08702409088025090890266247724882408
S11305D02EE4A22E93E8B92ECC24DD24EE24FF24AD
S11305E000E010E0222D332D442D552D662D772D5E
S11305F0882D90E00E94E21A2A833B834C835D831A
S11306006E837F8388879987822E932EA42EB52E9E
S11306102401350100E20E94E01BA22EB32EC42E59
S1130620D52EA301920156954795379527952A0D06
S11306303B1D4C1D5D1D57FF05C05F772F5F3F4F6E
S11306404F4F5F4F20938602309387024093880276
S113065050938902E9818E2F99278FBFCA01B9016E
S113066029960FB6F894DEBF0FBECDBFDF91CF91B0
S11306701F910F91FF90EF90DF90CF90BF90AF90BC
S11306809F908F907F906F905F904F903F902F90AE
S11306900895AC01EFB7F89420918400309185005F
S11306A0C901841B950B03968617970720F0B9019F
S11306B06D5F7F4F02C0640F751F6115710511F4E2
S11306C061E070E06150704070938900609388002D
S11306D082E086BB80916F00826080936F008E2FD2
S11306E099278FBF0895EF92FF920F931F937C0178
S11306F08FB7F89499270091590210915A020F5E0E
S11307001E4F10935A0200935902015111408FBF9A
S11307108AE00E94AC01C801B7010E94631C8A5D93
S11307209E4F1F910F91FF90EF9008951F93982F64
S11307301FB7F89480911202823099F580910702D4
S1130740891779F58091050220E030E08F3F11F49C
S113075021E030E0232BF1F49FEF909307028F3FC9
S113076019F42FEF30E00DC0282F3327F901E95891
S1130770FD4F8081809305028F3F11F49093060210
S1130780908320935C0281E08093120283E00E94B4
S1130790AC0105C08FEF809307021092120221E092
S11307A001C020E0812F99278FBF90E0213009F408
S11307B091E081E09827892F99271F910895FC01E2
S11307C080A591A50895FC0182A593A508957FB7FE
S11307D0F8946091B20020913E0230913F02409122
S11307E0400250914102B99B11C08091B300909195
S11307F0B200280F311D411D511D2F5F3F4F4F4F38
S11308005F4F290F311D411D511D04C0260F311D9D
S1130810411D511D872F99278FBFCA01B901089522
S1130820DF92EF92FF920F931F938FB7F894282FC4
S11308303327D22E9091B3008091B20047B398171A
S113084011F041FF02C02FBF71C080918202882342
S1130850E1F10E94E703E0903402F0903502009148
S113086036021091370220913109309132094091BA
S11308703309509134096E197F09800B910B62176B
S113088073078407950720F01092820271E01EC05E
S11308902E0D3F1D401F511F80913E0290913F023B
S11308A0A0914002B0914102281B390B4A0B5B0B0B
S11308B0273E31054105510540F4822F223010F0C6
S11308C070E005C070E082E002C070E086EE682F40
S11308D061508091B60083FDFCCF8091B20068170F
S11308E009F46F5F20913E0230913F024091400233
S11308F050914102DA01C9010196A11DB11D860F73
S1130900911DA11DB11D82179307A407B50710F40B
S1130910622F60958091B60083FDFCCF6093B30095
S1130920DFBE772319F085E00E94AC011F910F917F
S1130930FF90EF90DF900895AFB7F894BB27E1E004
S1130940E0938202609334027093350280933602FE
S1130950909337022093310930933209409333093D
S113096050933409AFBF0E9410040895CF93DF93CE
S1130970FC01DC0111962181662351F0ED0189818E
S11309809927982F882733272062822B932B09C01D
S1130990ED0189819927982F88273327822B932B60
S11309A08F7D8183892F99278983DF91CF91089542
S11309B09C0180912602882319F085E090E0089537
S11309C0309342042093410481E0809326021092E4
S11309D06A0388E00E94AC0180E090E008958823D7
S11309E019F08CB5806802C08CB58F778CBD0895E2
S11309F00F931F9380E00E9461020FB7F8941127B0
S1130A00229A2398219A8CB580618CBD80E00E9443
S1130A10EF048DB581608DBD8CB5877F8CBD8CB5A1
S1130A208B7F8CBD8CB58E7F8CBD81E00E94610272
S1130A300FBF1F910F910895FB0121E030E002C028
S1130A40220F331F8A95E2F7209580A9822380AB79
S1130A500895FB0121E030E002C0220F331F8A9584
S1130A60E2F780A9822B80AB08958FB7F894209188
S1130A70C1033091C2034091C3035091C403E09178
S1130A808400F0918500B09B08C02F5F3F4F4F4F0B
S1130A905F4FE0918400F091850099278FBFC901D1
S1130AA0772766279F0144275527622B732B842BB6
S1130AB0952B08958C960895CF92DF92EF92FF9232
S1130AC00F931F938C016A017B01BC0181E00E949A
S1130AD02905C8010E945A05FC01C082D182E28224
S1130AE0F3821F910F91FF90EF90DF90CF900895C4
S1130AF0FC01828121819927982F88273327822B13
S1130B00932B85FF1FC087749C7C81549848D1F433
S1130B10878146812FB7F894332760910202709140
S1130B2003022FBF20E09927982F88275527842B6D
S1130B30952B8617970709F021E081E02827822F5B
S1130B409927089580E090E008951F920F920FB6C0
S1130B500F9211248F938091B0008093B000809104
S1130B60B60081FDFCCF8F910F900FBE0F901F90A8
S1130B7018951F93182F81E00E9461021EBD0DB4C9
S1130B8007FEFDCF8EB599271F9108951F920F92EE
S1130B900FB60F9211248F929F92AF92BF92CF9271
S1130BA0DF92EF92FF920F931F932F933F934F93F4
S1130BB05F936F937F938F939F93AF93BF93CF93E1
S1130BC0DF93EF93FF932EB5E0913B04F0913C0447
S1130BD0309739F08091BF039091C003E80FF91F5B
S1130BE020838091BF039091C00301969093C0032A
S1130BF08093BF0380E00E94EF04C091BF03D091B3
S1130C00C0038091290290912A02C817D90708F0DD
S1130C1046C0009135091091360980903B049090AC
S1130C203C040F2EFAE0AF2EBB24F02DAC0EBD1EFB
S1130C308A159B0508F45C016401CC0EDD1E780165
S1130C40EC0EFD1E15C00115110519F0F701808188
S1130C5001C080E00E94B9058114910411F0F601ED
S1130C60808321960894C11CD11C0894E11CF11CBA
S1130C70C5010197C817D90730F381E00E94EF043A
S1130C800115110531F00C0F1D1FF80180818EBD77
S1130C9001C01EBCD093C003C093BF0311C0109207
S1130CA03C0410923B0410923609109235091092BC
S1130CB02A02109229021092C0031092BF038EB52B
S1130CC0FF91EF91DF91CF91BF91AF919F918F9160
S1130CD07F916F915F914F913F912F911F910F9150
S1130CE0FF90EF90DF90CF90BF90AF909F908F9048
S1130CF00F900FBE0F901F90189578941F920F922B
S1130D000FB60F9211240F900FBE0F901F901895DD
S1130D1078941F920F920FB60F9211240F900FBE6A
S1130D200F901F90189578941F920F920FB60F9200
S1130D3011242F933F938F939F93AF93BF932FB718
S1130D40F89433278091C1039091C203A091C30307
S1130D50B091C4030196A11DB11D8093C10390936A
S1130D60C203A093C303B093C4032FBFBF91AF9139
S1130D709F918F913F912F910F900FBE0F901F90D5
S1130D801895E2EFF0E06927660FF11DE60FF11DFB
S1130D90C895982F802D3196C89590250895982F41
S1130DA080912002882389F5992379F531E03093E5
S1130DB0200280910B028093210220911502822F40
S1130DC0817080933D028091100290911102909362
S1130DD023028093220280911602809324023227F8
S1130DE03170267EE32FFF27EE0FFF1FE45FFD4FD8
S1130DF0808191819093110280931002232B209380
S1130E00150282E10E94AC0108958091150280FFD1
S1130E1002C08B7F01C08D7F8093150208950F93CC
S1130E201F93082F162F80917D028130D9F08130D5
S1130E3038F0823009F44AC0833009F00EC159C039
S1130E40002309F43EC11092140910921309109260
S1130E50440410922709109281021092C603109242
S1130E60C5031FC1002309F02CC18091C5039091D3
S1130E70C6030E94C1069093C6038093C50382E013
S1130E8080937D0210932709143409F0E6C00BC146
S1130E908695869503C0809115028695817009F028
S1130EA0DCC080911502992311F0846001C0826036
S1130EB08093150280911502877E886080931502C5
S1130EC0109216028FEF80930B02FBC0002309F0EF
S1130ED0C4C0609381028091C5039091C6030E94AF
S1130EE0C1069093C6038093C50383E080937D027B
S1130EF0E8C0809144048F3F09F4AFC0002309F493
S1130F0047C0823008F4A9C0E0911309EE2309F424
S1130F10D1C04E2F4150E42FFF27ED5EF64F828162
S1130F209927382F2227442311F4E2E002C0E42F4A
S1130F30E150FF27ED5EF64F82819927282B392B4C
S1130F408091C5039091C6032817390709F085C01D
S1130F5080E00E94CF06309181028091B7032091F6
S1130F60B803982F9F5F963008F090E0921709F429
S1130F7074C0E82FFF27E954FC4F32838F5F8093BE
S1130F80B703863010F01092B7030E944D0265C07B
S1130F90823008F44EC0E0911409FF27ED5EF64F4D
S1130FA08281482F5527342F20911502822F869550
S1130FB086958695837099278130910519F002975B
S1130FC0F9F40EC0277E206120931502442311F406
S1130FD085E001C080E08093160230930B0210C0BC
S1130FE080911602833360F4E0911002F0911102B3
S1130FF0E80FF11D4083809116028F5F80931602E3
S113100080911409E82FFF27ED5EF64F62818F5F10
S113101080931409833010F010921409772780917B
S1131020C5039091C6030E94C1069093C6038093A2
S1131030C50380911309E82FFF27ED5EF64F128355
S11310408F5F80931309833010F0109213098091FD
S113105044048F5F8093440434C0109214091092A6
S1131060130910927D0210924404109227091092E1
S113107081021092C6031092C503809125028D7FD0
S11310808093250281E00E94CF0680911402882378
S113109031F084E080937D020E94D80112C00023C5
S11310A081F081E023CF80911502982F917080FD0B
S11310B0EFCEF1CE809117099927382F222742E0ED
S11310C036CF1F910F9108951F920F920FB60F9272
S11310D011242F933F934F935F936F937F938F9339
S11310E09F93AF93BF93EF93FF938091C00087FFCB
S11310F042C06091C600E091C703F091C8033097E5
S113110019F18091380990913909E80FF91F60832A
S113111001969093390980933809209144093091BC
S113112045098217930738F11092C8031092C70338
S113113080913E048330F9F08091C1008F778093D1
S1131140C10010923E0417C06E3719F460E081E0CC
S113115010C0809125026D3721F4826080932502AE
S11311600AC081FF05C08D7F8093250280E2682735
S113117080E00E940F07FF91EF91BF91AF919F9183
S11311808F917F916F915F914F913F912F910F902C
S11311900FBE0F901F901895982F8D57823068F4CA
S11311A08091250281608093250280E289278093C3
S11311B043048DE78093570202C09093570261E085
S11311C070E087E592E00E940802992708957894D8
S11311D01F920F920FB60F921124FF920F931F9339
S11311E02F933F934F935F936F937F938F939F932B
S11311F0AF93BF93CF93DF93EF93FF9320917E023E
S113120030917F0280911B0990911C09281739079E
S113121080F4E0912F03F0913003E20FF31F8081FB
S11312202F5F3F4F30937F0220937E020E94FC0188
S1131230D4C01092300310922F0310928002809138
S1131240C1008F7B8093C1008091250280FF0EC076
S11312508E7F80932502809143048093570261E03E
S113126070E087E592E00E940802B7C080913F04D5
S1131270843009F494C0853040F4823021F1833005
S1131280B8F5813009F0A4C00DC0863009F495C0CA
S1131290863008F48BC0873009F496C0883009F092
S11312A097C099C080912D030E94CC08182F83E029
S11312B080933F0460912D038091420990914309EA
S11312C00E94C10610C080912F090E94CC08182FDB
S11312D083E080933F0460912F09809142099091AB
S11312E043090E94C10690934309809342096EC04A
S11312F0FFB6F894E091CB03FF27EE0FFF1FEE5CDF
S1131300FC4F80810E94CC08082F1091CB03C12F81
S1131310DD27FE01EE0FFF1FEE5CFC4F6081809124
S11313204209909143090E94C10690934309809316
S1131330420920912B032F5F20932B03113039F5A1
S113134080911C02E0911702F0911802E80FF11D40
S1131350E0818F5F80931C0290911B02981730F4F8
S113136082E08093330340E050E002C04E2F5527C3
S1131370DE01AA0FBB1FFD01EF5CFC4F80818230B0
S113138031F02F3F21F0AE5CBC4F4C9303C084E09E
S113139080933F04102F8F2D99278FBF17C0809102
S11313A042090E94CC08182F85E00BC080914309A4
S11313B00E94CC08182F86E004C00E943D02182F1A
S11313C087E080933F0402C088E003C0112329F022
S11313D089E080933F040E944D02FF91EF91DF91D9
S11313E0CF91BF91AF919F918F917F916F915F91B9
S11313F04F913F912F911F910F91FF900F900FBE2E
S11314000F901F9018951F920F920FB60F921124F0
S11314108F938091C80087FF02C08091CE008F9186
S11314200F900FBE0F901F90189578941F920F92F3
S11314300FB60F9211240F900FBE0F901F901895A6
S113144078941F920F920FB60F9211240F900FBE33
S11314500F901F90189578941F920F920FB60F92C9
S113146011240F900FBE0F901F90189578941F921F
S11314700F920FB60F9211240F900FBE0F901F9072
S1131480189578941F920F920FB60F9211248F9390
S11314909F9380919400909195009F918F910F90CC
S11314A00FBE0F901F90189578941F920F920FB64D
S11314B00F9211242F933F938F939F932FB7F894F8
S11314C0332780918D0290918E02019690938E0223
S11314D080938D022FBF9F918F913F912F910F90F9
S11314E00FBE0F901F9018951F920F920FB60F9278
S11314F011242F933F934F935F936F937F938F9315
S11315009F93AF93BF93EF93FF938091B000809329
S1131510B0008091B60081FDFCCF8091B300992783
S11315200196AA27BB2720913E0230913F024091A9
S1131530400250914102280F391F4A1F5B1F20931C
S11315403E0230933F02409340025093410278940C
S11315500E941004FF91EF91BF91AF919F918F91E1
S11315607F916F915F914F913F912F910F900FBE9B
S11315700F901F901895CF93DF93EC018FE38A8728
S113158080918C028F5F80938C028B8380913B02CD
S113159090913C02892B11F025E018C0CE010E94E5
S11315A0DF03892B21F061E0CE010E94B604CE0155
S11315B00E94D8049927282F882341F4D0933C0211
S11315C0C0933B0210927A0210927902822F9927DB
S11315D0DF91CF910895EF92FF920F931F93E091C3
S11315E0D403E1FF34C02091CC033091CD0340916A
S11315F0CE035091CF03E090D003F090D10300913B
S1131600D2031091D303621B730B840B950B6E15DD
S11316107F0580079107D8F0E0FF04C0ED7FE093D9
S1131620D4030CC02E0D3F1D401F511F2093CC032B
S11316303093CD034093CE035093CF0380913B026C
S113164090913C02892B19F084E00E94AC0186E061
S11316500E94AC011F910F91FF90EF9008950F939A
S11316601F93CF93DF93182F0FB7F8948091130231
S1131670882311F40E94F804802F99278FBF8FB715
S1131680F894C82FDD272C2F80911302882361F44E
S113169081E08093130210932E038CE00E94AC012E
S11316A0CFBF80E090E021C0E12FFF27E45DFC4F35
S11316B080818F3F89F4E0910902E11789F40CC01D
S11316C01093080204C0FF27E45DFC4F10831093BD
S11316D0090280E090E002C085E090E02FBF05C0E1
S11316E0809108028F3F79F7EBCFDF91CF911F9163
S11316F00F9108958FB7F894282F3327922F809154
S11317000A02882331F480911302823011F42FBF2E
S113171013C09FBF8FB7F894282F332780911302EB
S1131720882369F482E08093130210920A022FBF87
S11317300E94F804209A289A81E090E008952FBF2F
S113174080E00E942F0B80E090E00895FF920F93B9
S11317501F93CF93DF93EC01898528859927982FD0
S113176088273327822B932B01970A9710F08E0139
S113177030C0FFB6F89480918B02882321F58091C4
S113178033029927FC01EE0FFF1FE15AFD4F008140
S11317901181D183C08301966CE070E00E94771CB4
S11317A08093330220914004281719F481E0809338
S11317B08B0280913009882349F40E94AC0181E0B6
S11317C08093300903C00E94A3018E018F2D9927B5
S11317D08FBFC801DF91CF911F910F91FF900895A2
S11317E01F93CF93DF93182FC0913B02D0913C02FB
S11317F010923C0210923B028091D4038D7F80931F
S1131800D4038091790290917A0299A788A78A8556
S11318108F3359F580E00E949603112319F00E943A
S1131820A30120C03FB7F89420914B09E22FFF2772
S1131830EE0FFF1FE156FC4F80819181C817D90735
S113184071F4822F8F5F80934B098C3010F01092CB
S11318504B0980913202882311F010923202832FB7
S113186099278FBF81E00E94AC01DF91CF911F9136
S113187008952FB7F8943327809356022FBF88E03A
S11318800E94AC01089578941F920F920FB60F92A4
S113189011242F933F934F935F936F937F938F9371
S11318A09F93AF93BF93EF93FF9380916F008D7FCE
S11318B080936F0078949FB7F89480912A038130C5
S11318C019F482E080932A03892F99278FBF82E03D
S11318D00E94AC01FF91EF91BF91AF919F918F91C5
S11318E07F916F915F914F913F912F910F900FBE18
S11318F00F901F90189578941F920F920FB60F9225
S113190011242F933F934F935F936F937F938F9300
S11319109F93AF93BF93EF93FF9380918400909133
S1131920850020918600309187008FB7F89499271D
S1131930309329032093280321E0209318098FBFB3
S113194082E00E94AC01FF91EF91BF91AF919F9112
S11319508F917F916F915F914F913F912F910F9054
S11319600FBE0F901F9018954F925F926F927F92C7
S11319708F929F92AF92BF92CF92DF92EF92FF929B
S11319800F931F93CF93DF932C0180912702882319
S113199009F04EC180913709853009F049C10E9490
S11319A07A0B882309F444C180911809882309F02B
S11319B03FC1E201E096F20180A982FD02C090E0FD
S11319C003C0F20192A99F7080916B03981781F074
S11319D090936B03289885EC8EBD0DB407FEFDCF64
S11319E08EB590689EBD0DB407FEFDCF8EB5289AC6
S11319F042010894811C911CF4018181F20121812E
S1131A0040E09927982F88273327822B932B8774BC
S1131A109C7C8154984809F441E0442301F12898BE
S1131A2086E88EBD0DB407FEFDCF8EB51EBC0DB489
S1131A3007FEFDCF8EB5289A99278F71907020915B
S1131A408A0240917802240F312D311D43E03595EF
S1131A5027954A95E1F7281739070CF4E9C0289827
S1131A6082EC8EBD0DB407FEFDCF8EB589E08EBD30
S1131A700DB407FEFDCF8EB5289A0E9435057B0173
S1131A808C01888184FD03C0C0E0D0E006C0F2016F
S1131A9080818550E201C80FD11D289881E88EBD50
S1131AA00DB407FEFDCF8EB51EBC0DB407FEFDCFF1
S1131AB08EB5289A8F71893021F087E08093370999
S1131AC0B7C08FB7F89499272F9A2091840030914A
S1131AD085008FBF2F98289880E68EBDF2019081F3
S1131AE00DB407FEFDCF8EB59EBD792F72507730B1
S1131AF010F4672F01C067E0F401962F41910DB4F3
S1131B0007FEFDCF8EB54EBD9150C1F76150F40173
S1131B10E60FF11D6F5F31962E193F092E553F4F89
S1131B203901882477FC8094982C6E0C7F1C801ECD
S1131B30911E209719F4972F961B1FC088819981B5
S1131B40AA81BB8186199709A809B9098B83292F12
S1131B503A2F4B2F55272A839D0144275527298344
S1131B608B2F9927AA27BB278883E5CF20810DB423
S1131B7007FEFDCF31968EB52EBD9150B8F70DB44A
S1131B8007FEFDCF8EB5289A289882EC8EBD0DB441
S1131B9007FEFDCF8EB586E08EBD0DB407FEFDCFEA
S1131BA08EB5289A209779F18881E9802A81AB80C3
S1131BB0332744275527542F432F322F2227992781
S1131BC0AA27BB27B82FAA2799278827FF240027ED
S1131BD011278701FF24EE248E299F29A02BB12BE6
S1131BE0BB24CC24DD248A299B29AC29BD29282B9C
S1131BF0392B4A2B5B2B260D371D481D591D288375
S1131C0039834A835B83B20181E00E942905C201C2
S1131C100E945A05FC01608271828282938286E06E
S1131C208093370984E08093270280E090E002C02B
S1131C3085E090E0DF91CF911F910F91FF90EF909D
S1131C40DF90CF90BF90AF909F908F907F906F90D8
S1131C505F904F900895CF92DF92EF92FF920F938F
S1131C601F93CF93DF93E82FFF27E331F10510F0A3
S1131C700C948218EA59FF4FEE0FFF1F0590F49160
S1131C80E02D09948FB7F894282F3327422F909191
S1131C90330280914004981739F480918B02882391
S1131CA019F41092300994C04FBFE0914004FF270B
S1131CB0EE0FFF1FE15AFD4F0190F081E02D80816E
S1131CC08D50482F5527642F4093C903B3857781DE
S1131CD0A681818520859927982F88273327822BF1
S1131CE0932B359627E0EF0119922A95E9F735975A
S1131CF08087892F99278783E0914004FF27EE0F7F
S1131D00FF1FE15AFD4F0190F081E02D4D3110F09D
S1131D100C94ED17872F9927982F88272A2F33277C
S1131D20822B932B8683892F99278583B3874187B9
S1131D308091190290911A02892B11F00C94ED17DD
S1131D402FB7F894332785E080931C0210921D026C
S1131D50F0931802E093170282E090E090931A0245
S1131D608093190210921F0210921E02645F609306
S1131D701B022FBF9FB7F89480913303882311F07F
S1131D8020E006C081E0809333031092340321E005
S1131D90892F99278FBF222311F40C946E180E9467
S1131DA04D028FB7F894992722B132E0CBC08FB798
S1131DB0F894282F3327422F9091280280914B09C1
S1131DC0981749F480913202882329F41092310241
S1131DD02FBF0C9482184FBFE0914B09FF27EE0FE1
S1131DE0FF1FE156FC4F0190F081E02D6185458194
S1131DF0F680878120859927982F88273327822B7F
S1131E00932BE384DF01119601E4018318E8ED01CB
S1131E10198311A610A610AA8087892F9927818774
S1131E206D3108F08AC588E8218170E09927982FE0
S1131E3088273327822B932B87749C7C8154984862
S1131E4009F471E0772319F40183ED01198355270F
S1131E50542F44278F2D9927482B592B635F608378
S1131E602FB7F894332780910202909103022FBF79
S1131E708087892F992781872FB7F89433278091FA
S1131E8004022FBF992784831582E3864683452F56
S1131E90552747838FB7F894282F33278091120250
S1131EA0882371F482E080931202109207022FBFFC
S1131EB0CF010E94BB0A9927182F882399F00FC0DD
S1131EC02FBFF0935E02E0935D028FB7F894082F62
S1131ED01127202F80911202882399F406C080E0F4
S1131EE00E949603812F992725C081E080931202D6
S1131EF010925C0283E00E94AC010FBF80E090E08E
S1131F0019C0809177028F3F91F4E0910602EE238D
S1131F1071F00C9473181092050204C0FF27E9585D
S1131F20FD4F10821092060280E090E002C085E02E
S1131F3090E02FBF892B09F000C58FB7F89499273B
S1131F4022B134E0232722B90C946C18809118092B
S1131F50882309F40FC10E947A0B882309F40AC16B
S1131F608FB7F8949927C0912803D09129038FBF84
S1131F701092180928988FE88EBD0DB407FEFDCF86
S1131F808EB51EBC0DB407FEFDCF8EB5289A982FD2
S1131F90C82EDD24C0FE0CC080912702833011F0CE
S1131FA0873031F485E08093370988E080932702F5
S1131FB0C2FE5BC080912702863019F4109227027A
S1131FC003C0882309F051C09430F1F5289886E8BD
S1131FD08EBD0DB407FEFDCF8EB51EBC0DB407FE3D
S1131FE0FDCFFEB4289AEFE1FE2280917802982F6B
S1131FF096959695FF2DF91B8F0F8093780200918B
S1132000380210913902B80182E00E941C05B8011F
S113201083E00E942905F801F2AA0E943505DC013B
S1132020CB01C81BD90B2797AE01662757FD6095D6
S1132030762F480F591F6A1F7B1F80913802909199
S113204039020E945C050EC0609138027091390219
S113205083E00E941C05609138027091390281E08E
S11320600E941C0585E080932702C3FE83C08091F3
S11320702702843009F04BC085E080933709109221
S1132080270280918502833019F41092850272C070
S1132090E0916803F0916903828121819927982F47
S11320A088273327822B932B85FF29C087749C7C38
S11320B08154984821F5878126819927982F88276C
S11320C03327822B932B8F5F9F4FC9F090E0809131
S11320D02A03882309F491E0992389F012E01093EC
S11320E0AE0681E080932A0380918400909185005C
S11320F061EE72E00E944903109385023BC0109286
S1132100850210923B0980E00E94390C33C085306F
S113211089F580913709873091F4289882EC8EBD37
S11321200DB407FEFDCF8EB586E08EBD0DB407FE5F
S1132130FDCF8EB5289A85E08093370917C020918A
S11321408A02289886E88EBD0DB407FEFDCF8EB5B1
S11321501EBC0DB407FEFDCF8EB5289A8F71922F49
S113216096959695891B280F20938A0289E080937F
S1132170270208C090912702992309F4EEC29930EE
S113218009F01BC2289880E28EBD0DB407FEFDCF76
S11321908EB51EBC0DB407FEFDCF8EB5482F552756
S11321A0433010F40C947B18842F99278A9714F0E9
S11321B00C947B181EBCE0913802F09139024083E4
S11321C0542F5250573010F4452F01C047E09F015F
S11321D02F5F3F4F942FF90160E070E00DB407FECC
S11321E0FDCF8EB51EBC808381916827062E629533
S11321F0607F6025072E762F62956F7006266695A0
S113220076276727660F660F660F6025915031F7B2
S11322104150D901A40FB11D4F5F1196E0913802CE
S1132220F09139028181282F3327277030702230B2
S1132230310509F491E09923B9F080918502823047
S113224081F48381E0916803F09169039381891794
S113225041F490E02230310509F091E081E09827C3
S11322600EC080E090E00DC08FB7F894282F33277C
S113227090E08091CA03833008F491E02FBF892F46
S11322809927892B11F40C947B18952F941B18C053
S11322900DB407FEFDCF8EB51EBC8C938D916827BF
S11322A0062E6295607F6025072E762F62956F70EB
S11322B00626669576276727660F660F660F6025E4
S11322C0915030F70DB407FEFDCF8EB51EBC9B01B7
S11322D02827022E2295207F2025032E322F229597
S11322E02F700226269532272327220F220F220F32
S11322F020250DB407FEFDCF8EB51EBC2827022E67
S11323002295207F2025032E322F22952F7002261E
S1132310269532272327220F220F220F20250DB4C2
S113232007FEFDCF8EB5E0913802F091390281AB02
S1132330289A85E08093370910922702232B09F00D
S113234008C2E0903802F090390267010894C11C79
S1132350D11CE701898190E08770823009F491E013
S1132360292F3327122F809185028230D9F480914E
S11323706F008D7F80936F0010922A036091680331
S113238070916903222321F080E00E94290503C093
S113239080E00E941C051092850210923B0980E0A7
S11323A00E94390C112309F003C1C7010E9478056A
S11323B08823A9F085E080936C0382E080936D0309
S11323C010926E03F601828180936F038CE693E092
S11323D00E94B40C882319F483E080938502009151
S11323E0840010918500C7010E947805882311F0AC
S11323F0045E1C4F10937C0200937B028091840046
S113240090918500B801681B790B16161706A4F481
S113241080913B09882369F481E08093AE06809320
S11324202A0380918400909185000E94490380E8EA
S113243001C0806880933B09E60188852F81992734
S1132440582F44273327422B532B80914202282FA5
S11324503327F901EE0FFF1FE35EF64F8081918170
S113246070913D048417950769F4F901E45CF64F13
S11324708081871709F467C0872F8F5F80933D049D
S113248080831DC000E010E080E090E0CDE1D9E061
S1132490ECE3F9E0DF01682F9C01888199818417BE
S11324A0950779F42093420290913D048C91891709
S11324B009F449C0892F8F5F80933D048C9300E811
S11324C029C08081972F981B091710F4092F122F08
S11324D06F5FC90101961196229631968530910558
S11324E0D1F66530B9F410934202A12FBB27FD0148
S11324F0EE0FFF1FE35EF64F5183408380913D044E
S11325008F5F80933D04FD01E45CF64F8083AA5BFA
S1132510B64F1C9290913D04892F8F778F3779F4B1
S11325200F3768F0ECE3F9E0292F207880818F677A
S113253089132083319639E0E134F307B9F78091A8
S11325404202282F3327E6019A81A22FBB27FD01DF
S1132550EA5BF64F808180FF07C0FD01EB5BFB4F18
S11325608081981729F102C081608083AB5BBB4FE7
S11325709C93DFB6F8948091CA038330B0F4E09161
S11325803A02E80FE33008F0E350FF27EE0FFF1F95
S1132590E55DFD4F00811181F182E0828F5F8093C0
S11325A0CA0389E00E94AC0178018D2D99278FBF61
S11325B0F0923902E0923802C3C0892F81508330EF
S11325C008F09CC081508230E0F4309137093130FA
S11325D0C1F420E080912A03882309F421E0222316
S11325E081F02F9883E08093AE0630932A03809184
S11325F08400909185006BE273E00E94490382E0BD
S113260068C0933009F042C080913709833009F0E3
S1132610A0C00E947A0B8823C9F128988FE88EBD48
S11326200DB407FEFDCF8EB51EBC0DB407FEFDCF65
S11326308EB5289A8091810080648093810080E225
S113264086BB80916F00806280936F0090915B02E3
S1132650289888EC8EBD0DB407FEFDCF8EB590662C
S11326609EBD0DB407FEFDCF8EB5289A289882EC46
S11326708EBD0DB407FEFDCF8EB586E08EBD0DB4C4
S113268007FEFDCF8EB5289A84E023C080912702EF
S11326908150823000F5809137098530E1F40E9441
S11326A07A0B8823C1F0289882EC8EBD0DB407FE06
S11326B0FDCF8EB583E08EBD0DB407FEFDCF8EB584
S11326C0289A80916F008F7D80936F001092180973
S11326D083E08093370990912702913041F48091EF
S11326E037098330B1F52F9A9093370925C092307A
S11326F039F580913709833061F51EC0973001F5B3
S11327000E947A0B8823E1F090915B02289888EC70
S11327108EBD0DB407FEFDCF8EB590669EBD0DB483
S113272007FEFDCF8EB5289A80913709853021F4B4
S113273084E08093370904C088E08093270204C0B2
S113274080912702883029F41092270287E00E94A2
S1132750AC0180912702882331F5809137098530B7
S1132760F9F4809118098823D9F48091850288238B
S1132770B9F480913B09882399F490E080912A036D
S1132780882309F491E0992359F08091260281303D
S113279039F488E00E94AC0180912702882319F45F
S11327A080E00E946A0280912A03823009F0AAC460
S11327B010922A03D090AE06E2E0DE1609F47DC042
S11327C0F3E0DF1609F481C021E0D21609F09AC4BF
S11327D080917B0290917C026091840070918500CD
S11327E020913B09203849F410923B09809126023C
S11327F0813009F087C488E014C47C01E61AF70A22
S113280027FF03C01E141F04ECF0009183021091F3
S11328108402809185028823A9F4C8010E94B40C23
S11328209927882351F4B8010E941C05D09285028F
S113283010936903009368033CC09927182F8823D9
S1132840C1F101C015E020913B09822F99278F77B0
S11328500197B1F42078226020933B0980E198E04D
S11328600E94730321E02093AE0620932A03209153
S1132870840030918500BC01C9010E94490342C40F
S113288027FF13C01E141F0484F480E880933B09BF
S113289081E08093AE0680932A0380918400909116
S11328A08500B7010E94490302C010923B09812FA1
S11328B009C083E080933B0925C4109285021092DD
S11328C03B0980E00E94390C1DC480913709823095
S11328D019F4D092370962C280912702863009F038
S11328E05DC210922702289881E88EBD0DB407FEC0
S11328F0FDCF8EB51EBC0DB407FEFDCF8EB5289A54
S11329004DC22FB7F894332780915C02809307025D
S113291082E0809312022FBF80910702882309F07E
S1132920F1C380915D0290915E020E94BB0A8823EC
S113293009F4E8C380E00E9496030E94A30181E0A9
S113294070C300913B0210913C02C8010E94DF0356
S1132950892B21F061E0C8010E94B60480913B02FA
S113296090913C020E94D804882309F4CBC31CC173
S113297080915802882361F5209128093091290912
S113298040912A0950912B09EFB7F894FF276091E1
S11329903402709135028091360290913702E090B2
S11329A03109F090320900913309109134096E0D08
S11329B07F1D801F911FEFBF2093280930932909A1
S11329C040932A0950932B09109258020E949C04A8
S11329D00E94E7033AC00E94E7037B018C018FB792
S11329E0F8949927109282028FBF8091D40381FFBB
S11329F089C38091CC039091CD03A091CE03B09173
S1132A00CF03A8019701281B390B4A0B5B0BDA0192
S1132A10C9012091D0033091D1034091D203509148
S1132A20D303281B390B4A0B5B0B2F3F8FEF38075F
S1132A308FEF48078FE7580709F464C3121613068B
S1132A40140615062CF0C801B7010E94EB0A5AC3FC
S1132A50209328093093290940932A0950932B097C
S1132A6081E080935802C801B7010E949C044AC3C4
S1132A708091260210922602843019F410923202B8
S1132A8041C3853009F43EC3863009F43BC33EC0DC
S1132A908FB7F8949927D09056028FBF8091260261
S1132AA0823011F4DD2039F090916A039F5F909396
S1132AB06A03963020F083E08093260234C020918C
S1132AC041043091420480913B09882311F540E090
S1132AD080912A03882309F441E04423D1F0309300
S1132AE084022093830211E010933B0986EB93E266
S1132AF00E947303BC011093AE0610932A038091C5
S1132B008400909185000E94490382E0809326020C
S1132B10F9C2953031F483E08093260285E0D82E03
S1132B2002C081E0F3CF10922602E0914104F091BB
S1132B3042040091790210917A020F5F1F4F1093A3
S1132B407A020093790280A980FF02C080E02FC03E
S1132B50E0903B02F0903C02C7010E94DF0308179B
S1132B60190720F5C7010E94E3038C01892BE1F0CA
S1132B700E94E7036093CC037093CD038093CE034C
S1132B809093CF03C801AA27BB278093D0039093C7
S1132B90D103A093D203B093D3038091D403836071
S1132BA08093D40386E03DC284E03BC28D2D0E9415
S1132BB0F00BA8C20E94D801A5C28FB7F894282FA1
S1132BC033278091CA03882309F402C9E0913A02A9
S1132BD0FF27EE0FFF1FE55DFD4FA081B1812FBFE1
S1132BE0ED018A858F3381F4BD01645F7F4F8C9141
S1132BF08D50482F55278FB7F89499278FBFCD0153
S1132C000E94A60BDC0104C08FB7F89499278FBFEC
S1132C109FB7F89480913A02E82FFF27EE0FFF1F29
S1132C20E55DFD4FB183A0838F5F80933A028330CB
S1132C3010F010923A028091CA0381508093CA0323
S1132C40892F99278FBFB9CF0E94C0022FB7F8945C
S1132C50332770935A0260935902BAC88FB7F89415
S1132C60992710923C0410923B041092360910925A
S1132C70350910922A02109229021092C003109270
S1132C80BF0362C92FB7F894332780912E03809332
S1132C900A0282E0809313022FBF80910A028823E4
S1132CA009F030C2209A289A80913709882309F0C4
S1132CB075C08EEF91E0019701960197E1F71698A0
S1132CC02F9886E090E0019701960197E1F7169A14
S1132CD0289883EC8EBD0DB407FEFDCF8EB51EBCC7
S1132CE00DB407FEFDCF8EB5289A289882EC8EBDD0
S1132CF00DB407FEFDCF8EB588E08EBD0DB407FE82
S1132D00FDCF8EB5289A8EEF91E001970196019739
S1132D10E1F728988EEC8EBD0DB407FEFDCF8EB57D
S1132D208DE48EBD0DB407FEFDCF8EB5289A28988C
S1132D3089EC8EBD0DB407FEFDCF8EB587EC8EBD3C
S1132D400DB407FEFDCF8EB5289A289885EC8EBD6C
S1132D500DB407FEFDCF8EB580E88EBD0DB407FE21
S1132D60FDCF8EB5289A10926B038BE080935B02A3
S1132D70289888EC8EBD0DB407FEFDCF8EB58BE68A
S1132D808EBD0DB407FEFDCF8EB5289A2F9A81E033
S1132D908093370980E00E946A02B4C10E94D30183
S1132DA0B1C18FB7F89410923A0920913F0440E0E2
S1132DB0283009F441E030E0293009F431E04423BB
S1132DC011F4332351F010923F04E091CB03FF2719
S1132DD0EE0FFF1FEF5CFC4F108299278FBF442337
S1132DE011F4332319F180912F098F5F80932F09F8
S1132DF080912D038334A1F49FB7F8942091B803F4
S1132E008091B703821741F0822F8F5F8093B803BC
S1132E10863010F01092B803892F99278FBF0AC00B
S1132E20A0E0442309F4A1E071E006C0222311F0DC
S1132E3010E069C070E0A0E08FB7F8949927209162
S1132E4014028FBF222341F08FB7F89499272AE008
S1132E5020933F048FBF43C08FB7F89499276091A4
S1132E603103409133038FBF8FB7F894282F332752
S1132E7050E09091B7038091B803981709F451E09A
S1132E802FBF552349F5662339F55FB7F89482E0DF
S1132E90809331038FB7F894282F332740E0909123
S1132EA0B7038091B803981709F441E02FBF442376
S1132EB011F080E006C0E091B803FF27E954FC4F0D
S1132EC0828180933203852F99278FBF83E4809377
S1132ED02D031092CB030BC04150423010F010E090
S1132EE007C085E480932D0381E08093CB0311E038
S1132EF0772349F08FB7F8949927A0931D028FBFC9
S1132F0081E10E94AC0180913F048A3009F452CEE1
S1132F10112309F4F7C02FB7F8943327109243090B
S1132F201092420910922B0381E080933F042FBF3B
S1132F300E943D02882309F4E5C08FB7F8949927CD
S1132F4029E020933F048FBF0E944D02DBC0809193
S1132F50C1008F7B8093C1008091C1008F778093E3
S1132F60C10010923E04109280028091C1008860DA
S1132F708093C1008091C10080618093C1008091E1
S1132F80C10080688093C10010928B02BBC080E1B5
S1132F9048C08091C100877F8093C1008091C100A7
S1132FA08F7E8093C100AEC010921A021092190253
S1132FB08FB7F894992720911D028FBF80911E022C
S1132FC0811123E0409117025091180280911F0251
S1132FD0882309F097C0222319F00E94A30120C07E
S1132FE03FB7F89420914004E22FFF27EE0FFF1F14
S1132FF0E15AFD4F808191814817590771F4822F5E
S11330008F5F809340048C3010F0109240048091C4
S11330108B02882311F010928B02832F99278FBF84
S113302080E00E94AC016EC08FB7F894992720917C
S113303021020091220210912302F0903D028FBFE1
S11330402223A1F5EFB6F89480913202882339F552
S113305080912802E82FFF27EE0FFF1FE156FC4F57
S1133060C081D181118300838F5F809328028C30CB
S113307010F0109228029091280280914B09981721
S113308019F481E08093320280913102882351F453
S113309081E00E94AC0181E08093310203C00E9470
S11330A0A301E8018E2D99278FBF8E018FB7F89465
S11330B0EF2DFF27EE0FFF1FE45FFD4F1183008309
S11330C020911502FF2011F02B7F01C02D7F20934A
S11330D015021092200299278FBF14C010921A0271
S11330E0109219027ACF809105028F3F11F00C944F
S11330F08E0F0C948B0F289A85E0809337091092D9
S1133100270227CBDF91CF911F910F91FF90EF9072
S1133110DF90CF90089580912C098F3FB1F0282F34
S11331203327F901ED5BFD4F808180932C098F3F9C
S113313011F4809341098FEF80832F3F31F0822F68
S11331400E942B0E81E090E0089580E090E00895C5
S1133150FF920F931F93FFB6F89443E150E06FEF93
S113316070E083E492E00E94021D8FEF80932C09AB
S11331708093410956985E9854985C9880916F00AA
S11331808F7D80936F00209A289A279A2F980E9A01
S1133190169A85E393E09093390280933802109253
S11331A08A028AE58093780281E08093810080E23C
S11331B08093B60083E08093B10080918400909165
S11331C085004AE72091840030918500281739074B
S11331D008F44150442311F0C901F4CF9091B20096
S11331E08091B2008917E1F3209184003091850029
S11331F09091B2008091B2008917E1F3809184002C
S113320090918500821B930B4096F5E096958795E7
S1133210FA95E1F790932E0980932D091092B1004D
S11332208091B10080938100809181008093B600E9
S11332301092B20010928500109284008FEF87BB29
S113324087B386BB8091B6008571E1F70A9A099A23
S1133250089A129A119A109A18B88FEF87B90C9895
S113326014981092950010929400809171008160DE
S11332708093710080919100887F82608093910097
S1133280109285001092840080916F008160809379
S11332906F0080918100887F82608093810081E04B
S11332A085BF0E948B188823E1F712E006E0609145
S11332B02D0970912E0988279927ECE0660F771F56
S11332C0881F991FEA95D1F720E031EE40E050E0E5
S11332D00E948A1C215030402093C400832F9927D8
S11332E08093C5001093C0000093C2001092C100E7
S11332F02093CC008093CD001093C8000093CA00A3
S11333001092C90084E490E090931A0980931909FB
S1133310109231031092330310923F0410922B0346
S113332010922D0310922F09109243091092420912
S113333010923A091092CB031092140910921309B7
S113334010927D0210924404109227091092810277
S11333501092C6031092C5031092B8031092B703DB
S11333608FEF80932C0380E00E942F0B20910002AA
S1133370309101022F5F3F4FC901AA27BB278093D9
S1133380860290938702A0938802B09389028FE803
S113339092E090932C0280932B02C39690932E027A
S11333A080932D0285EF92E09093300280932F0258
S11333B08091B60080628093B6008091B60081FD52
S11333C0FCCF82E08093B0008091B60080FDFCCFFA
S11333D083E08093B1008091B60083FDFCCF86EE3C
S11333E08093B300809170008260809370000E948B
S11333F010048FEF9FEF90931E0980931D09909303
S1133400200980931F0990932209809321099093A6
S11334102409809323099093260980932509809198
S113342000028295807F80938C028FEF80937702D5
S11334300E948B188823E1F78F2D99278FBF7894EA
S1133440EFE5F2E08FEA96E081939193C39622E050
S1133450E737F207C9F71092400410923302109232
S1133460300981E080938B02EFE9F3E08AE494E091
S113347081939193C39623E0E73BF207C9F7109237
S11334804B09109228021092310281E0809332029B
S1133490809126028823E1F4809127028823C1F4D5
S11334A080913709813049F490E080912A03882380
S11334B009F491E0992361F002C0853049F083E07A
S11334C08093270282E00E94AC0184E0809326026C
S11334D08EE00E94AC018FB7F894482F552757C04F
S11334E080917000992783709070892B19F4E5E01E
S11334F0F0E014C08091B6008A71E1F78091B300C6
S11335009091B200891B8C3038F08091B200853FD5
S113351018F4E3E0F0E002C0E2E0F0E080916E0035
S1133520867009F580916F008E72E9F480917100C4
S11335308E72C9F40CB407FC16C08091C100807E61
S113354091F48091C900807E71F48091BC0082FD69
S11335500AC080917A0087FF03C081E090E005C033
S113356085E090E002C080E090E023B78E1708F475
S1133570E82FFF27EE50FD4FE491207F2160E22BDE
S1133580E3BF78948895F89483B78E7F83BF809146
S11335902C098F3F09F4A4CF282F3327F901ED5BC1
S11335A0FD4F808180932C098F3F11F48093410952
S11335B08FEF80832F3F09F493CF4FBF822F0E9458
S11335C02B0E89CFACE2B0E0E8EEFAE10C94CB1C10
S11335D0222E332E442E552E662E772E882E992E8B
S11335E0FE013196A8E01192AA95E9F729823A8260
S11335F04B825C826D827E828F829886FE01399630
S1133600B8E01192BA95E9F7A986BA86CB86DC862A
S1133610ED86FE860F87188B89819A81AB81BC81E8
S113362089A79AA7ABA7BCA77C018D018FEF9FEF59
S1133630A0E0B0E0E822F9220A231B2389A59AA579
S1133640ABA5BCA51D014424552489859A85AB8569
S1133650BC858DA39EA3AFA3B8A75C016D018FEFBA
S11336609FEFA0E0B0E0A822B922CA22DB228DA1FC
S11336709EA1AFA1B8A53D0188249924C801B70132
S1133680A60195010E94AC1C69A37AA38BA39CA3F9
S1133690C801B701A40193010E94AC1C7B018C01F9
S11336A0C201B101A60195010E94AC1C5B016C0131
S11336B0C201B101A40193010E94AC1C3B014C0165
S11336C0EA0CFB1C0C1D1D1D89A19AA1ABA1BCA178
S11336D09D01442755272E0D3F1D401F511F2A15BC
S11336E03B054C055D0540F480E090E0A1E0B0E0CE
S11336F0680E791E8A1E9B1ECA01AA27BB27860D47
S1133700971DA81DB91D8D8F9E8FAF8FB8A3A901DA
S11337103327222789A19AA1ABA1BCA1A070B070C4
S1133720280F391F4A1F5B1F298F3A8F4B8F5C8FDD
S1133730A98CBA8CCB8CDC8CED8CFE8C0F8D18A1F3
S1133740FE01719698E011929A95E9F7ED8AFE8A46
S11337500F8B188F2D813E814F8158856DA17EA1DD
S11337608FA198A50E94AC1C3B014C012D853E8580
S11337704F85588969A57AA58BA59CA50E94AC1C88
S11337802D893E894F89588D260F371F481F591F91
S1133790260D371D481D591D2D8B3E8B4F8B588F81
S11337A06D887E888F88988C2A2D3B2D4C2D5D2D1D
S11337B0662D772D882D992DE2E1AC960C94E71CAB
S11337C0A0E1B0E0E6EEFBE10C94CB1C222E332EFC
S11337D0442E552E662E772E882E992E002309F41A
S11337E066C088E0FE01319611928A95E9F7298333
S11337F03A834B835C836D837E838F829887E0E278
S1133800E01B1E16CCF52D813E814F815885602F1B
S1133810772767FD7095DA01C901062E04C0B695B5
S1133820A795979587950A94D2F78D879E87AF873A
S1133830B88B04C0220F331F441F551FEA95D2F7DB
S113384089819A81AB81BC8104C0B695A79597956F
S113385087956A95D2F7282B392B4A2B5B2B29871E
S11338603A874B875C8729843A844B845C846D84D3
S11338707E848F8498881BC01D861E861F86188AA6
S11338802E2F332727FD3095309521953F4F8D817D
S11338909E81AF81B88504C0B695A7959795879505
S11338A02A95D2F789879A87AB87BC87DCCF222DEC
S11338B0332D442D552D662D772D882D992DE2E13C
S11338C060960C94E71CAA1BBB1B51E107C0AA1FFE
S11338D0BB1FA617B70710F0A61BB70B881F991FAD
S11338E05A95A9F780959095BC01CD01089597FB51
S11338F0092E07260AD077FD04D0E5DF06D0002084
S11339001AF4709561957F4F0895F6F79095819517
S11339109F4F0895A1E21A2EAA1BBB1BFD010DC0E7
S1133920AA1FBB1FEE1FFF1FA217B307E407F5076B
S113393020F0A21BB30BE40BF50B661F771F881F47
S1133940991F1A9469F760957095809590959B01DD
S1133950AC01BD01CF010895629FD001739FF001B6
S1133960829FE00DF11D649FE00DF11D929FF00D0B
S1133970839FF00D749FF00D659FF00D9927729F42
S1133980B00DE11DF91F639FB00DE11DF91FBD01CD
S1133990CF01112408952F923F924F925F926F921C
S11339A07F928F929F92AF92BF92CF92DF92EF92CB
S11339B0FF920F931F93CF93DF93CDB7DEB7CA1B4C
S11339C0DB0B0FB6F894DEBF0FBECDBF09942A8877
S11339D0398848885F846E847D848C849B84AA841F
S11339E0B984C884DF80EE80FD800C811B81AA81AC
S11339F0B981CE0FD11D0FB6F894DEBF0FBECDBF77
S1133A00ED010895DC0101C06D9341505040E0F791
S1073A100895FFCF43
S1133A140100010022FFFFFFFFFFFFFFD50308049D
S1053A24D503C4
S9030000FC
