:100000000C9469000C9488000C9488000C9488006F
:100010000C9488000C9488000C9488000C94880040
:100020000C9488000C9488000C9488000C94880030
:100030000C9488000C942E040C9488000C941203E9
:100040000C94630E0C949B0E0C94EA030C94F50331
:100050000C9400040C9488000C9488000C94880084
:100060000C9433030C9488000C9488000C94880042
:100070000C9488000C9488000C9488000C948800E0
:100080000C9488000C9488000C9488000C948800D0
:100090000C9488000C9488000C9488000C948800C0
:1000A0000C9488000C9488000C9488000C948800B0
:1000B0000C9488000C9488000C9488000C948800A0
:1000C0000C9488000C9488000C94880000020E06A2
:1000D0000C0411241FBECFEFD1E2DEBFCDBF12E072
:1000E000A0E0B2E0E8EDFEE200E00BBF02C0079046
:1000F0000D92AC30B107D9F714E0ACE0B2E001C02A
:100100001D92A935B107E1F70E94E1130C946B171A
:100110000C9400008FB7F894992708958FBF089525
:10012000CF93DF93FC01DC0111962181662351F00E
:10013000ED0189819927982F882733272062822B08
:10014000932B09C0ED0189819927982F88273327A0
:10015000822B932B8F7D8183892F99278983DF9130
:10016000CF910895282F9FB7F894E82FFF27E955DE
:10017000FD4F80818F3F81F4E0915304E21771F4C9
:100180000BC02093420404C0FF27E955FD4F208394
:100190002093530420E007C025E005C0809142046D
:1001A0008F3F91F7EECF892F99278FBF822F992705
:1001B0000895882319F08CB5806402C08CB58F7BBC
:1001C0008CBD08950F931F93982F1FB7F8948091BB
:1001D0002802823099F580910A02891779F5809179
:1001E000080220E030E08F3F11F421E030E0232BC3
:1001F000F1F49FEF90930A028F3F19F42FEF30E054
:100200000DC0282F3327F901E659FC4F80818093D8
:1002100008028F3F11F490930902908320936B039F
:1002200081E08093280289E00E94B20005C08FEF30
:1002300080930A021092280201E001C000E0812FA1
:1002400099278FBF1FB7F89480912802882311F453
:100250000E94D900812F99278FBF90E0013009F4C7
:1002600091E081E09827892F99271F910F91089598
:10027000882319F08CB5806802C08CB58F778CBD4F
:1002800008950F931F9380E00E94D9000FB7F89450
:100290001127229A2398219A8CB580618CBD80E029
:1002A0000E9438018DB581608DBD8CB5877F8CBD76
:1002B0008CB58B7F8CBD8CB58E7F8CBD81E00E9410
:1002C000D9000FBF1F910F9108958FB7F894209117
:1002D000DC033091DD034091DE035091DF03E091B8
:1002E0008400F0918500B09B08C02F5F3F4F4F4FB7
:1002F0005F4FE0918400F091850099278FBFC9017D
:10030000772766279F0144275527622B732B842B61
:10031000952B0895FC0180A9826080AB08958C968E
:100320000895AC01EFB7F8942091840030918500D6
:10033000C901841B950B03968617970720F0B90116
:100340006D5F7F4F02C0640F751F6115710511F459
:1003500061E070E0615070407093890060938800A4
:1003600082E086BB80916F00826080936F008E2F49
:1003700099278FBF0895FC01828121819927982FA9
:1003800088273327822B932B85FF1FC087749C7C83
:1003900081549848D1F4878146812FB7F894332748
:1003A00060910202709103022FBF20E09927982FDD
:1003B00088275527842B952B8617970709F021E06E
:1003C00081E02827822F9927089580E090E0089502
:1003D00021E0209330042093690320918400309120
:1003E0008500BC01C9010E9491010895EF92FF921E
:1003F0000F931F937C018FB7F89499270091B60251
:100400001091B7020F5E1E4F1093B7020093B60211
:10041000015111408FBF87E00E94B200C801B701AF
:100420000E94E7168A5D9E4F1F910F91FF90EF90FB
:1004300008956D3118F080E090E008950C960895CD
:10044000FC0182A593A50895EF920F931F93AE2D03
:1004500099E0899FF0011124EF51FC4F40835183B3
:10046000628373830483158326833783A170808519
:100470008E7F8A2B8260808781E00E94B2001F916C
:100480000F91EF9008957FB7F8946091B20020919A
:10049000A2023091A3024091A4025091A502B99BFF
:1004A00011C08091B3009091B200280F311D411D01
:1004B000511D2F5F3F4F4F4F5F4F290F311D411D82
:1004C000511D04C0260F311D411D511D872F992735
:1004D0008FBFCA01B9010895DF92EF92FF920F9387
:1004E0001F938FB7F894282F3327D22E9091B30003
:1004F0008091B20047B3981711F041FF02C02FBF9F
:1005000071C08091C4028823E1F10E944302E0900F
:100510009902F0909A0200919B0210919C02209106
:1005200046043091470440914804509149046E19A3
:100530007F09800B910B621773078407950720F0E2
:100540001092C40271E01EC02E0D3F1D401F511FAE
:100550008091A2029091A302A091A402B091A50261
:10056000281B390B4A0B5B0B273E31054105510512
:1005700040F4822F223010F070E005C070E082E07D
:1005800002C070E086EE682F61508091B60083FD56
:10059000FCCF8091B200681709F46F5F2091A2022E
:1005A0003091A3024091A4025091A502DA01C90141
:1005B0000196A11DB11D860F911DA11DB11D8217B0
:1005C0009307A407B50710F4622F60958091B600D9
:1005D00083FDFCCF6093B300DFBE772319F080E08A
:1005E0000E94B2001F910F91FF90EF90DF9008954D
:1005F000AFB7F894BB27E1E0E093C402609399029F
:1006000070939A0280939B0290939C0220934604DD
:10061000309347044093480450934904AFBF0E946D
:100620006C0208951F920F920FB60F9211248F93B0
:100630008091B0008093B0008091B60081FDFCCF26
:100640008F910F900FBE0F901F9018951F93182F2A
:1006500081E00E94D9001EBD0DB407FEFDCF8EB50E
:1006600099271F9108951F920F920FB60F92112490
:100670008F929F92AF92BF92CF92DF92EF92FF92B2
:100680000F931F932F933F934F935F936F937F939A
:100690008F939F93AF93BF93CF93DF93EF93FF938A
:1006A0002EB5E0912604F0912704309739F080911F
:1006B000D6039091D703E80FF91F20838091D603CA
:1006C0009091D70301969093D7038093D60380E04F
:1006D0000E943801C091D603D091D70380912B029C
:1006E00090912C02C817D90708F046C000914A041F
:1006F00010914B0480902604909027040F2EFAE06E
:10070000AF2EBB24F02DAC0EBD1E8A159B0508F440
:100710005C016401CC0EDD1E7801EC0EFD1E15C0DF
:100720000115110519F0F701808101C080E00E94D8
:1007300026038114910411F0F60180832196089418
:10074000C11CD11C0894E11CF11CC5010197C817FC
:10075000D90730F381E00E9438010115110531F00D
:100760000C0F1D1FF80180818EBD01C01EBCD093EF
:10077000D703C093D60311C0109227041092260409
:1007800010924B0410924A0410922C0210922B02E9
:100790001092D7031092D6038EB5FF91EF91DF919F
:1007A000CF91BF91AF919F918F917F916F915F9109
:1007B0004F913F912F911F910F91FF90EF90DF90FC
:1007C000CF90BF90AF909F908F900F900FBE0F90E3
:1007D0001F90189578941F920F920FB60F921124C4
:1007E0000F900FBE0F901F90189578941F920F9244
:1007F0000FB60F9211240F900FBE0F901F901895F7
:1008000078941F920F920FB60F9211242F933F935B
:100810008F939F93AF93BF932FB7F8943327809113
:10082000DC039091DD03A091DE03B091DF0301961C
:10083000A11DB11D8093DC039093DD03A093DE0323
:10084000B093DF032FBFBF91AF919F918F913F91E5
:100850002F910F900FBE0F901F9018951F920F921F
:100860000FB60F9211242F933F934F935F936F9383
:100870007F938F939F93AF93BF93EF93FF93809159
:10088000B0008093B0008091B60081FDFCCF8091D4
:10089000B30099270196AA27BB272091A202309185
:1008A000A3024091A4025091A502280F391F4A1FAC
:1008B0005B1F2093A2023093A3024093A4025093A3
:1008C000A50278940E946C02FF91EF91BF91AF91C5
:1008D0009F918F917F916F915F914F913F912F9158
:1008E0000F900FBE0F901F9018950F931F93CF93EB
:1008F000DF93182F0FB7F89480912802882311F402
:100900000E944101802F99278FBF8FB7F894C82F7D
:10091000DD272C2F80912802882361F481E08093C9
:10092000280210936B0389E00E94B200CFBF80E0E1
:1009300090E021C0E12FFF27E659FC4F80818F3FD7
:1009400089F4E0910902E11789F40CC010930802C0
:1009500004C0FF27E659FC4F10831093090280E082
:1009600090E002C085E090E02FBF05C080910802B2
:100970008F3F79F7EBCFDF91CF911F910F910895C2
:100980008FB7F894282F3327922F80910A0288235B
:1009900031F480912802823011F42FBF13C09FBF21
:1009A0008FB7F894282F332780912802882369F481
:1009B00082E08093280210920A022FBF0E94410118
:1009C000209A289A81E090E008952FBF80E00E944D
:1009D000750480E090E008954F925F926F927F924D
:1009E0008F929F92AF92BF92CF92DF92EF92FF923F
:1009F0000F931F93CF93DF932C0180912A028823BA
:100A000009F04DC180914C04853009F048C10E9425
:100A1000C004882309F443C180913104882309F07C
:100A20003EC1E201E096F20180A982FD02C090E0A1
:100A300003C0F20192A99F708091A203981781F0E0
:100A40009093A203289885EC8EBD0DB407FEFDCFD0
:100A50008EB590689EBD0DB407FEFDCF8EB5289A69
:100A600042010894811C911CF4018181F2012181D1
:100A700040E09927982F88273327822B932B877460
:100A80009C7C8154984809F441E0442301F1289862
:100A900086E88EBD0DB407FEFDCF8EB51EBC0DB42D
:100AA00007FEFDCF8EB5289A99278F7190702091FF
:100AB000CC024091BD02240F312D311D43E035950C
:100AC00027954A95E1F7281739070CF4E8C02898CC
:100AD00082EC8EBD0DB407FEFDCF8EB589E08EBDD4
:100AE0000DB407FEFDCF8EB5289A0E9465017B01EB
:100AF0008C01888184FD03C0C0E0D0E006C0F20113
:100B000080818550E201C80FD11D289881E88EBDF3
:100B10000DB407FEFDCF8EB51EBC0DB407FEFDCF94
:100B20008EB5289A8F71893021F087E080934C042C
:100B3000B6C08FB7F89499272F9A209184003091EE
:100B400085008FBF2F98289880E68EBDF201908196
:100B50000DB407FEFDCF8EB59EBD792F7250773054
:100B600010F4672F01C067E0F401962F41910DB496
:100B700007FEFDCF8EB54EBD9150C1F76150F40117
:100B8000E60FF11D6F5F31962E193F092E553F4F2D
:100B90003901882477FC8094982C6E0C7F1C801E71
:100BA000911E209719F4972F961B1FC08881998159
:100BB000AA81BB8186199709A809B9098B83292FB6
:100BC0003A2F4B2F55272A839D01442755272983E8
:100BD0008B2F9927AA27BB278883E5CF20810DB4C7
:100BE00007FEFDCF31968EB52EBD9150B8F70DB4EE
:100BF00007FEFDCF8EB5289A289882EC8EBD0DB4E5
:100C000007FEFDCF8EB586E08EBD0DB407FEFDCF8D
:100C10008EB5289A209779F18881E9802A81AB8066
:100C2000332744275527542F432F322F2227992724
:100C3000AA27BB27B82FAA2799278827FF24002790
:100C400011278701FF24EE248E299F29A02BB12B89
:100C5000BB24CC24DD248A299B29AC29BD29282B3F
:100C6000392B4A2B5B2B260D371D481D591D288318
:100C700039834A835B83C2010E948A01C2010E94B8
:100C80008F01FC01608271828282938286E0809370
:100C90004C0484E080932A0280E090E002C085E06A
:100CA00090E0DF91CF911F910F91FF90EF90DF9037
:100CB000CF90BF90AF909F908F907F906F905F90FC
:100CC0004F9008951F93982F1FB7F8948091270293
:100CD000823099F580910702891779F58091050294
:100CE00020E030E08F3F11F421E030E0232BF1F4DD
:100CF0009FEF909307028F3F19F42FEF30E00DC064
:100D0000282F3327F901E454FD4F80818093050299
:100D10008F3F11F49093060290832093B90281E0F3
:100D20008093270282E00E94B20005C08FEF80937B
:100D300007021092270221E001C020E0812F9927AD
:100D40008FBF90E0213009F491E081E09827892F4E
:100D500099271F9108952FB7F89433278093B302F2
:100D60002FBF85E00E94B20008959C018091290266
:100D7000882319F085E090E0089530932A042093A9
:100D8000290481E0809329021092A10385E00E944A
:100D9000B20080E090E00895CF93DF93EC018FE301
:100DA0008A878091CD028F5F8093CD028B83809163
:100DB000A0029091A102892B11F025E017C088A50F
:100DC00099A5892B21F061E0CE010E949000CE010F
:100DD0000E94B5069927282F882341F4D093A102B9
:100DE000C093A0021092C1021092C002822F9927D4
:100DF000DF91CF9108951F93CF93DF93182FFA01BE
:100E0000422F2D3118F086E090E08AC0DF01119664
:100E1000ED018981218150E09927982F8827332778
:100E2000822B932B87749C7C8154984809F451E061
:100E3000552329F481E4818388E8ED018983435FA8
:100E400040832FB7F89433278091020290910302D8
:100E50002FBF8087892F992781872FB7F894332751
:100E6000809104022FBF992784831582138766839C
:100E7000872F992787838FB7F894282F332780915E
:100E80002702882371F482E08093270210920702E0
:100E90002FBFCF010E94CC069927182F882399F0E5
:100EA0000FC02FBFF093BB02E093BA028FB7F89444
:100EB000C82FDD272C2F80912702882399F406C0A4
:100EC00080E00E946206812F99272AC081E08093EA
:100ED00027021092B90282E00E94B200CFBF80E0E8
:100EE00090E01EC08091BC028F3F89F4E091060221
:100EF000EE2369F010C01092050204C0FF27E454ED
:100F0000FD4F10821092060280E090E002C085E062
:100F100090E02FBF05C0809105028F3F79F7EBCF9E
:100F2000DF91CF911F910895CF93DF93582FFB014D
:100F3000823018F081E090E033C0C82FDD27CC0F5D
:100F4000DD1FC852DC4F88819981892B19F085E01B
:100F500090E026C079836883435F40834D50809141
:100F60000B02823018F480E090E01AC0838567811C
:100F70007727762F662726813327622B732B509392
:100F80000B02242FAF010E94FB069927282F8823EC
:100F900029F082E080930B0219821882822F992710
:100FA000DF91CF910895FB018683892F992787834D
:100FB00086E0838780E00E94940799270895AF9286
:100FC000BF92CF92DF92EF92FF920F931F93CF9336
:100FD000DF935B016C016091E90361FF1FC0209109
:100FE000E1033091E2034091E3035091E403E09088
:100FF000E503F090E6030091E7031091E803D601C2
:10100000C501821B930BA40BB50B8E159F05A00782
:10101000B10720F0E1EEF3E090E021C0EAEEF3E06A
:101020006091F20361FF8BC02091EA033091EB03E2
:101030004091EC035091ED03E090EE03F090EF034C
:101040000091F0031091F103A21AB30AC40AD50A61
:10105000AE14BF04C006D10608F471C091E060FF71
:1010600004C080858D7F808708C02E0D3F1D401FE6
:10107000511F2083318342835383992321F0913080
:1010800009F05DC053C080910C02882309F057C05D
:1010900068E183EF93E00E941902EC018091000265
:1010A000909101028983892F9927888380910D026D
:1010B00090910E028B83892F99278A8310921002B8
:1010C00010920F0217C0EE0FFF1FDF01AD5EBD4F84
:1010D0008D919C913496EC0FFD1F8183892F992768
:1010E000808380910F0290911002019690931002DC
:1010F00080930F02E0910F02F091100280910D0297
:1011000090910E02E817F907F0F210920E02109279
:101110000D0248E163EF73E08FEF9FEF0E94D3076A
:10112000882369F481E080930C0209C08091A002B9
:101130009091A102892B19F083E00E94B20081E016
:101140000E94B200DF91CF911F910F91FF90EF901D
:10115000DF90CF90BF90AF900895FF920F931F93B1
:10116000082FF42EE82FFF27EE0FFF1FE852FC4F49
:101170001182108280910B029927019662E070E043
:101180000E94FB16682F80930B0210E0462F552714
:10119000FA01EE0FFF1FE852FC4FA081B1811097BA
:1011A00099F0E62FE695E695E695FF27EB5BFB4F7A
:1011B000808199279A012770307002C09595879594
:1011C0002A95E2F780FF0DC0CA01019662E070E047
:1011D0000E94FB16682F1F5F1230C1F610930B029E
:1011E00019C060930B026230A8F42C912D50332764
:1011F000FD0167817727762F662786819927682BDF
:10120000792BAD0183850E94FB06882319F08BE0C2
:101210000E94B200002319F0013041F403C0FF2006
:1012200029F402C0FF2011F410920C021F910F91BB
:10123000FF9008951F93CF93DF93182FC091A002C2
:10124000D091A1021092A1021092A0028091F2030B
:101250008D7F8093F2038091C0029091C10299A783
:1012600088A78A858F33A9F480E00E946206809166
:101270000B02823070F4E82FFF27EE0FFF1FE852B9
:10128000FC4F608171816C177D0719F4412F0E941A
:10129000AD08DF91CF911F910895AF92BF92CF9289
:1012A000DF92EF92FF920F931F93CF93DF93809182
:1012B0003104882309F413C10E94C004882309F46F
:1012C0000EC18FB7F8949927C0916703D091680336
:1012D0008FBF1092310428988FE88EBD0DB407FEA1
:1012E000FDCF8EB51EBC0DB407FEFDCF8EB5289A7E
:1012F000982FA82EBB24A0FE0CC080912A02833018
:1013000011F0873031F485E080934C0488E08093BD
:101310002A02A2FE5FC080912A02863019F4109240
:101320002A0203C0882309F055C0943009F041C057
:10133000289886E88EBD0DB407FEFDCF8EB51EBC85
:101340000DB407FEFDCF2EB5289A2F718091BD02F6
:10135000982F96959695322F391B830F8093BD0257
:10136000E0919D02F0919E0280A98B7F886080AB06
:1013700022AB0E9465016B017C0100919D021091DE
:101380009E02C8010E948A01C8010E948F01FC01CF
:10139000CC19DD092797CE01AA2797FDA095BA2F72
:1013A0008C0D9D1DAE1DBF1D80839183A283B383D1
:1013B0000EC0E0919D02F0919E0280A9877F80ABD4
:1013C000E0919D02F0919E0280A98D7F80AB85E027
:1013D00080932A02A3FE83C080912A02843009F000
:1013E0004BC085E080934C0410922A028091C70282
:1013F000833019F41092C70272C0E0919F03F091FC
:10140000A003828121819927982F88273327822B57
:10141000932B85FF29C087749C7C8154984821F5C3
:10142000878126819927982F88273327822B932B12
:101430008F5F9F4FC9F090E080916903882309F482
:1014400091E0992389F012E01093300481E08093B9
:101450006903809184009091850061EE72E00E94A2
:1014600091011093C7023BC01092C70210924D0425
:1014700080E00E94AB0633C0853089F580914C0432
:10148000873091F4289882EC8EBD0DB407FEFDCF15
:101490008EB586E08EBD0DB407FEFDCF8EB5289AC1
:1014A00085E080934C0417C02091CC02289886E8F0
:1014B0008EBD0DB407FEFDCF8EB51EBC0DB407FE6C
:1014C000FDCF8EB5289A8F71922F96959695891B90
:1014D000280F2093CC0289E080932A0208C09091C3
:1014E0002A02992309F4E2C2993009F00FC2289820
:1014F00080E28EBD0DB407FEFDCF8EB51EBC0DB4CF
:1015000007FEFDCF8EB5482F5527433008F49EC304
:10151000842F99278A970CF099C31EBCE0919D02F5
:10152000F0919E024083542F5250573010F4452FB3
:1015300001C047E09F012F5F3F4F942FF90160E00A
:1015400070E00DB407FEFDCF8EB51EBC8083819187
:101550006827062E6295607F6025072E762F62959C
:101560006F700626669576276727660F660F660FEB
:101570006025915031F74150D901A40FB11D4F5F43
:101580001196E0919D02F0919E028181282F3327D0
:10159000277030702230310509F491E09923B9F0B9
:1015A0008091C702823081F48381E0919F03F091A2
:1015B000A0039381891741F490E02230310509F0AE
:1015C00091E081E098270EC080E090E00DC08FB7D9
:1015D000F894282F332790E08091E003833008F4BB
:1015E00091E02FBF892F9927892B09F42FC3952FBD
:1015F000941B18C00DB407FEFDCF8EB51EBC8C9396
:101600008D916827062E6295607F6025072E762FC4
:1016100062956F700626669576276727660F660FB8
:10162000660F6025915030F70DB407FEFDCF8EB5E3
:101630001EBC9B012827022E2295207F2025032EE9
:10164000322F22952F700226269532272327220F2C
:10165000220F220F20250DB407FEFDCF8EB51EBC34
:101660002827022E2295207F2025032E322F229517
:101670002F700226269532272327220F220F220FB2
:1016800020250DB407FEFDCF8EB5E0919D02F091AF
:101690009E0281AB289A85E080934C0410922A0226
:1016A000232B09F0FFC1E0909D02F0909E025701AC
:1016B0000894A11CB11CF701818190E087708230F1
:1016C00009F491E0292F3327122F8091C70282302D
:1016D000C9F480916F008D7F80936F001092690331
:1016E000E0919F03F091A00380A9222311F0816073
:1016F00001C08E7F80AB1092C70210924D0480E033
:101700000E94AB06112309F0FCC0C7010E94BB0177
:101710008823A9F085E08093A30382E08093A4034B
:101720001092A503F50182818093A60383EA93E0DA
:101730000E94EC04882319F483E08093C70200918F
:10174000840010918500C7010E94BB01882311F01D
:10175000045E1C4F1093C3020093C2028091840068
:1017600090918500081B190BC801101611066CF426
:1017700020914D04222331F40E94E80180E88093F7
:101780004D0403C0206820934D04F5018085278116
:101790009927582F44273327422B532B8091A60299
:1017A000282F3327F901EE0FFF1FEE5CFB4F8081DE
:1017B0009181709128048417950769F4F901E25B1F
:1017C000FB4F8081871709F467C0872F8F5F809355
:1017D000280480831DC000E010E080E090E0C2E3B8
:1017E000D4E0EEE4F4E0DF01682F9C018881998168
:1017F0008417950779F42093A602909128048C9180
:10180000891709F449C0892F8F5F809328048C932E
:1018100000E829C08081972F981B091710F4092F21
:10182000122F6F5FC901019611962296319685306D
:101830009105D1F66530B9F41093A602A12FBB270C
:10184000FD01EE0FFF1FEE5CFB4F51834083809143
:1018500028048F5F80932804FD01E25BFB4F8083A7
:10186000AC5ABB4F1C9290912804892F8F778F37E9
:1018700079F40F3768F0EEE4F4E0292F20788081C6
:101880008F6789132083319634E0E335F307B9F786
:101890008091A602282F3327F5019281A22FBB2722
:1018A000FD01EC5AFB4F808180FF07C0FD01E55D23
:1018B000FB4F8081981729F102C081608083A55D6C
:1018C000BB4F9C93CFB6F8948091E0038330B0F483
:1018D000E0919F02E80FE33008F0E350FF27EE0F9E
:1018E000FF1FE35DFD4F00811181F182E0828F5F78
:1018F0008093E00386E00E94B20078018C2D992746
:101900008FBFF0929E02E0929D02C3C0892F81504A
:10191000833008F09CC081508230E0F430914C0458
:101920003130C1F420E080916903882309F421E07B
:10193000222381F02F9883E0809330043093690351
:1019400080918400909185006BE273E00E94910188
:1019500082E068C0933009F042C080914C0483302B
:1019600009F097C00E94C0048823C9F128988FE825
:101970008EBD0DB407FEFDCF8EB51EBC0DB407FEA7
:10198000FDCF8EB5289A809181008064809381007C
:1019900080E286BB80916F00806280936F0090919F
:1019A000B802289888EC8EBD0DB407FEFDCF8EB529
:1019B00090669EBD0DB407FEFDCF8EB5289A28987F
:1019C00082EC8EBD0DB407FEFDCF8EB586E08EBDD8
:1019D0000DB407FEFDCF8EB5289A84E023C0809118
:1019E0002A028150823000F580914C048530E1F468
:1019F0000E94C0048823C1F0289882EC8EBD0DB4EB
:101A000007FEFDCF8EB583E08EBD0DB407FEFDCF82
:101A10008EB5289A80916F008F7D80936F00109211
:101A2000310483E080934C0490912A02913041F478
:101A300080914C048330B1F52F9A90934C0425C0CB
:101A4000923039F580914C04833061F51EC0973097
:101A500001F50E94C0048823E1F09091B802289813
:101A600088EC8EBD0DB407FEFDCF8EB590669EBD91
:101A70000DB407FEFDCF8EB5289A80914C048530B9
:101A800021F484E080934C0404C088E080932A020F
:101A900004C080912A02883029F410922A0284E03E
:101AA0000E94B20080912A02882331F580914C0473
:101AB0008530F9F4809131048823D9F48091C702EC
:101AC0008823B9F480914D04882399F490E08091A3
:101AD0006903882309F491E0992359F08091290240
:101AE000813039F485E00E94B20080912A02882377
:101AF00019F480E00E94E20080916903823009F0CD
:101B000098C010926903C0903004F2E0CF1609F437
:101B10006CC023E0C21609F470C031E0C31609F0AE
:101B200088C02091C2023091C302809184009091BC
:101B3000850040914D04403859F410924D04809135
:101B40002902813009F075C085E00E94B20071C0A1
:101B50008901081B190B47FF03C010161106ECF092
:101B6000C091C502D091C6028091C7028823A9F412
:101B7000CE010E94EC049927882351F488A98E7F16
:101B800088ABC092C702D093A003C0939F0329C023
:101B90009927F82E882329F102C035E0F32E2091F1
:101BA0004D04822F99278F77019759F4207822606E
:101BB00020934D0480E198E00E94F6010E94E80124
:101BC00038C027FF0AC0101611063CF480E8809345
:101BD0004D04C8010E94E80102C010924D048F2DEF
:101BE00009C083E080934D0424C01092C702109274
:101BF0004D0480E00E94AB061CC080914C048230F2
:101C000019F4C0924C0413C080912A02863079F4F2
:101C100010922A02289881E88EBD0DB407FEFDCFF0
:101C20008EB51EBC0DB407FEFDCF8EB5289A0E945E
:101C30004F0E8FB7F894282F33278091B50281304B
:101C400061F081E08093B5022FBF31CB289A85E007
:101C500080934C0410922A0225CF1092B5022FBF18
:101C6000DF91CF911F910F91FF90EF90DF90CF9078
:101C7000BF90AF9008958FB7F894282F33278091A5
:101C8000B50281508093B502803811F02FBF0895BE
:101C900081E08093B5022FBF0E944D0908958FB750
:101CA000F894282F33278091B502882329F0806883
:101CB0008093B5022FBF089581E08093B5022FBFB6
:101CC0000E944D09089578941F920F920FB60F92BB
:101CD00011242F933F934F935F936F937F938F9331
:101CE0009F93AF93BF93EF93FF9380918400909164
:101CF000850020918600309187008FB7F89499274E
:101D0000309368032093670321E0209331048FBF51
:101D10000E944F0EFF91EF91BF91AF919F918F91D4
:101D20007F916F915F914F913F912F910F900FBED7
:101D30000F901F90189578941F920F920FB60F92E4
:101D400011242F933F934F935F936F937F938F93C0
:101D50009F93AF93BF93EF93FF9380916F008D7F1D
:101D600080936F0078949FB7F894809169038130D5
:101D700019F482E080936903892F99278FBF0E940D
:101D80004F0EFF91EF91BF91AF919F918F917F91F6
:101D90006F915F914F913F912F910F900FBE0F90D8
:101DA0001F9018951F938FB7F89499272091B5022B
:101DB0002F5F2093B5028FBF80912902882311F0F5
:101DC00015E023C080912A028823E1F480914C041D
:101DD000813049F490E080916903882309F491E00F
:101DE000992381F005C0853019F489E090E00CC09A
:101DF00083E080932A020E944F0E84E080932902A0
:101E000010E003C085E090E0182F0E943B0E812F68
:101E100099271F9108952F923F924F925F926F9250
:101E20007F928F929F92AF92BF92CF92DF92EF926A
:101E3000FF920F931F93CF93DF93CDB7DEB7299710
:101E40000FB6F894DEBF0FBECDBF382F853009F432
:101E500046C1863090F4823009F4DDC0833030F41E
:101E6000882331F1813009F076C455C0833009F4FC
:101E700006C1843009F06FC418C1883009F4A2C3C8
:101E8000893038F4863009F4B5C1873009F063C46D
:101E90003DC38A3039F08A3008F4A9C38B3009F089
:101EA0005AC44CC480914504882309F031C453C4FA
:101EB0008091B402882361F520913C0430913D0467
:101EC00040913E0450913F04EFB7F894FF27609192
:101ED000990270919A0280919B0290919C02E090ED
:101EE0004604F090470400914804109149046E0D97
:101EF0007F1D801F911FEFBF20933C0430933D0452
:101F000040933E0450933F041092B4020E94F802A2
:101F10000E9443026DC00E9443025B016C018FB7B7
:101F2000F89499271092C4028FBF8091E90381FF32
:101F300025C08091E1039091E203A091E303B09169
:101F4000E403A6019501281B390B4A0B5B0BE090BB
:101F5000E503F090E6030091E7031091E803E21A2D
:101F6000F30A040B150B3FEFE3163FEFF3063FEFC9
:101F700003073FE7130711F061E009C00FEFE02E00
:101F80000FEFF02E0FEF002F0FE7102F60E0809182
:101F9000F20381FF21C08091EA039091EB03A091AD
:101FA000EC03B091ED03A6019501281B390B4A0BF8
:101FB0005B0BDA01C9012091EE033091EF034091F0
:101FC000F0035091F103281B390B4A0B5B0B2E15C4
:101FD0003F05400751072CF0662309F4BCC3A80154
:101FE000970112161306140615062CF0C601B5014A
:101FF0000E94DF07B0C320933C0430933D0440931C
:102000003E0450933F0481E08093B402C601B501C1
:102010000E94F802A0C38FB7F89499272091B902C3
:1020200020930702309327028FBF809107028823F5
:1020300009F091C38091BA029091BB020E94CC0634
:10204000082F1127002309F486C380E00E9462064E
:102050002091BA023091BB0280910B02823008F0CD
:102060007AC3E82FFF27EE0FFF1FE852FC4F608175
:1020700071816217730709F06EC3402F6AC3E09144
:10208000A002F091A10280A591A5892B21F061E029
:10209000CF010E9490008091A0029091A1020E9425
:1020A000B506882309F457C39DC080912902109278
:1020B0002902843059F40E944302AB01BC01EE2492
:1020C00009EB1BE020E030E080E089C0853009F4B6
:1020D00042C3863009F43FC3809329023CC38FB7C3
:1020E000F89499271091B3028FBF80912902823012
:1020F00011F4112339F08091A1038F5F8093A10324
:10210000863020F083E0809329023CC08FB7F8949A
:1021100099272091B5022F5F2093B5028FBF2091A0
:10212000290430912A0480914D048823D1F490E051
:1021300080916903882309F491E0992391F0309309
:10214000C6022093C50281E080934D0486EB93E2A2
:102150000E94F6010E94E80182E08093290210E0CB
:102160000AC08091A103853011F483E001C081E0B1
:102170008093290215E00E943B0E80912902833052
:1021800009F0E9C210922902E0912904F0912A0491
:102190002091C0023091C1022F5F3F4F3093C102A6
:1021A0002093C00280A980FF02C080E020C0E0919F
:1021B000A002F091A10280A591A528173907B0F4DB
:1021C000CF010E9420028C01892B61F00E94430202
:1021D000AB01BC0122273327B1E0EB2E81E00E9446
:1021E0002402B9C283E00E94B200B5C2812F0E94CE
:1021F0001A09B1C28FB7F894282F33278091E003D2
:10220000882309F483C2E0919F02FF27EE0FFF1F8E
:10221000E35DFD4FC080D1802FBFF60182858F33F3
:1022200009F054C16385878126819927582F442757
:102230003327422B532B8FB7F89499272091020212
:10224000309103028FBF4217530721F04F5F5F4F5A
:1022500009F040C18601045F1F4F862F9927873000
:1022600009F487C0883009F413C1863009F032C1FF
:10227000F601818520859927982F88273327822B7F
:10228000932B9093BF028093BE0220910002309165
:1022900001022817390708F01DC168E183E392E0C5
:1022A0000E941902DC01F601848525859927982F63
:1022B00088273327822B932BFD018183892F992730
:1022C0008C934EE0E42EF12CEC0CFD1CF60186857F
:1022D000B601615F7F4F27859927982F882733277D
:1022E000822B932BFD018383892F99278283109260
:1022F0001202109211021FC0440F551F4C5F5F4F16
:10230000F801E40FF51F808121819927982F8827F4
:102310003327822B932BFD01E40FF51F8183892F37
:1023200099278083809111029091120201969093D7
:102330001202809311024091110250911202F70192
:102340008081FB0120819927982F88273327822BB2
:10235000932B4817590780F280910C02882309F0CB
:10236000B9C048E163E372E08FEF9FEF0E94D307AB
:1023700089C0F601818520859927982F88273327E2
:10238000822B932B9093BF028093BE020B9740F059
:102390008FB7F894992722B131E0232722B98FBF54
:1023A0001093410400934004F60180892189992704
:1023B000582F44273327422B532B4115510559F0F1
:1023C00020910002309101028091BE029091BF02E3
:1023D0002817390778F0452B09F07CC020910002BE
:1023E000309101028091BE029091BF028217930743
:1023F00008F070C066E086E692E00E941902DC01F7
:10240000F801808121819927982F88273327822BF3
:10241000932BFD018183892F99278C93E0914004B0
:10242000F0914104848125819927982F88273327AB
:10243000822B932BFD018583892F99278483E0913B
:102440004004F0914104828123819927982F8827A5
:102450003327822B932BFD018383892F9927828336
:1024600080910C028823B1F58FEF80936C028093EA
:102470006D0287E08093710246E066E672E081E0DB
:102480000E949407882331F581E080930C0222C0DA
:1024900040910D0250910E024A305105D8F4F601D8
:1024A00084852585FA01EE0FFF1FED5EFD4F99270C
:1024B000982F88273327822B932B918380834F5F1C
:1024C0005F4F50930E0240930D0204C08FB7F894F3
:1024D00099278FBF9FB7F89480919F02E82FFF271D
:1024E000EE0FFF1FE35DFD4FD182C0828F5F8093AF
:1024F0009F02833010F010929F028091E003815080
:102500008093E003892F99278FBF74CEFFB7F9839B
:10251000F8942090C8023090C9024090CA025090AE
:10252000CB026624772488248EE4A82E03E8B02EFC
:10253000CC24DD24EE24FF2400E010E0222D332DF6
:10254000442D552D662D772D882D90E00E9466151F
:102550002A833B834C835D836E837F83888799873F
:10256000822E932EA42EB52E2401350100E20E9466
:102570006416A22EB32EC42ED52EA3019201569519
:102580004795379527952A0D3B1D4C1D5D1D57FF1F
:1025900005C05F772F5F3F4F4F4F5F4F2093C802BB
:1025A0003093C9024093CA025093CB026981862FAF
:1025B00099278FBF8FB7F89499273093B70220934C
:1025C000B60213C08FB7F89499271092270410927F
:1025D000260410924B0410924A0410922C0210927E
:1025E0002B021092D7031092D6038FBFB4C02FB71F
:1025F000F894332780916B0380930A0282E08093E2
:1026000028022FBF80910A02882309F0A4C0209AD3
:10261000289A80914C04882309F075C08EEF91E0D0
:10262000019701960197E1F716982F9886E090E0C0
:10263000019701960197E1F7169A289883EC8EBDD1
:102640000DB407FEFDCF8EB51EBC0DB407FEFDCF49
:102650008EB5289A289882EC8EBD0DB407FEFDCF6A
:102660008EB588E08EBD0DB407FEFDCF8EB5289ADD
:102670008EEF91E0019701960197E1F728988EEC93
:102680008EBD0DB407FEFDCF8EB58DE48EBD0DB4AD
:1026900007FEFDCF8EB5289A289889EC8EBD0DB423
:1026A00007FEFDCF8EB587EC8EBD0DB407FEFDCFC6
:1026B0008EB5289A289885EC8EBD0DB407FEFDCF07
:1026C0008EB580E88EBD0DB407FEFDCF8EB5289A7D
:1026D0001092A2038BE08093B802289888EC8EBDFC
:1026E0000DB407FEFDCF8EB58BE68EBD0DB407FE93
:1026F000FDCF8EB5289A2F9A81E080934C0480E01C
:102700000E94E20028C00E944F0E25C02FBF23C0A8
:1027100021E0E8EDF3E090914504822F892339F020
:1027200011821082822F80959823909345043296CF
:1027300083E0E83EF80779F0220FEDCF80910B029D
:10274000E82FFF27EE0FFF1FE852FC4F60817181D9
:1027500041E00E94AD0829960FB6F894DEBF0FBE87
:10276000CDBFDF91CF911F910F91FF90EF90DF9040
:10277000CF90BF90AF909F908F907F906F905F9021
:102780004F903F902F900895809142048F3FB1F079
:10279000282F3327F901E955FD4F808180934204AA
:1027A0008F3F11F4809353048FEF80832F3F31F0DC
:1027B000822F0E940B0F81E090E0089580E090E06E
:1027C00008951F931FB7F8944CE050E06FEF70E04E
:1027D00087EA92E00E9464178FEF8093420480930F
:1027E000530456985E9854985C9880916F008F7D42
:1027F00080936F00209A289A279A2F980E9A169AFB
:102800008CE693E090939E0280939D021092CC02FE
:102810008AE58093BD0281E08093810080E280930D
:10282000B60083E08093B100809184009091850090
:102830004AE720918400309185002817390708F471
:102840004150442311F0C901F4CF9091B20080911E
:10285000B2008917E1F320918400309185009091B6
:10286000B2008091B2008917E1F3809184009091C9
:102870008500821B930B409625E0969587952A95B7
:10288000E1F790934404809343041092B100809147
:10289000B10080938100809181008093B6001092F6
:1028A000B20010928500109284008FEF87BB87B32F
:1028B00086BB8091B6008571E1F70A9A099A089A59
:1028C000129A119A109A18B88FEF87B90C98149829
:1028D000109285001092840080916F008160809337
:1028E0006F0080918100887F82608093810081E009
:1028F00085BF0E94C4138823E1F78FEF80936A039A
:1029000080E00E94750420910002309101022F5F47
:102910003F4FC901AA27BB278093C8029093C902E1
:10292000A093CA02B093CB028EEC92E090932E0259
:1029300080932D02C3969093300280932F0284E3FC
:1029400093E090933202809331028FEF9FEF909348
:10295000330480933204909335048093340490932D
:10296000370480933604909339048093380490930D
:102970003B0480933A04809100028295807F80938B
:10298000CD028FEF8093BC028091B600806280936D
:10299000B6008091B60081FDFCCF82E08093B0004C
:1029A0008091B60080FDFCCF83E08093B1008091E0
:1029B000B60083FDFCCF86EE8093B300809170005B
:1029C0008260809370000E946C020E94C41388236E
:1029D000E1F7812F99278FBF78940E94D20E8FB78D
:1029E000F894482F552757C080917000992783701D
:1029F0009070892B19F4E5E0F0E014C08091B600E6
:102A00008A71E1F78091B3009091B200891B8C30FC
:102A100038F08091B200853F18F4E3E0F0E002C0A6
:102A2000E2E0F0E080916E00867009F580916F0021
:102A30008E72E9F4809171008E72C9F40CB407FCB7
:102A400016C08091C100807E91F48091C900807E83
:102A500071F48091BC0082FD0AC080917A0087FFEA
:102A600003C081E090E005C085E090E002C080E016
:102A700090E023B78E1708F4E82FFF27E453FF4FA9
:102A8000E491207F2160E22BE3BF78948895F8944D
:102A900083B78E7F83BF809142048F3F09F4A4CF18
:102AA000282F3327F901E955FD4F80818093420497
:102AB0008F3F11F4809353048FEF80832F3F09F4ED
:102AC00093CF4FBF822F0E940B0F89CFACE2B0E0B3
:102AD000ECE6F5E10C942D17222E332E442E552EC4
:102AE000662E772E882E992EFE013196A8E011923F
:102AF000AA95E9F729823A824B825C826D827E82B6
:102B00008F829886FE013996B8E01192BA95E9F75E
:102B1000A986BA86CB86DC86ED86FE860F87188B63
:102B200089819A81AB81BC8189A79AA7ABA7BCA7F1
:102B30007C018D018FEF9FEFA0E0B0E0E822F92249
:102B40000A231B2389A59AA5ABA5BCA51D01442476
:102B5000552489859A85AB85BC858DA39EA3AFA39B
:102B6000B8A75C016D018FEF9FEFA0E0B0E0A82255
:102B7000B922CA22DB228DA19EA1AFA1B8A53D0139
:102B800088249924C801B701A60195010E940E1757
:102B900069A37AA38BA39CA3C801B701A4019301E5
:102BA0000E940E177B018C01C201B101A6019501A3
:102BB0000E940E175B016C01C201B101A4019301D7
:102BC0000E940E173B014C01EA0CFB1C0C1D1D1D45
:102BD00089A19AA1ABA1BCA19D01442755272E0D27
:102BE0003F1D401F511F2A153B054C055D0540F454
:102BF00080E090E0A1E0B0E0680E791E8A1E9B1E86
:102C0000CA01AA27BB27860D971DA81DB91D8D8F48
:102C10009E8FAF8FB8A3A9013327222789A19AA13C
:102C2000ABA1BCA1A070B070280F391F4A1F5B1F59
:102C3000298F3A8F4B8F5C8FA98CBA8CCB8CDC8C14
:102C4000ED8CFE8C0F8D18A1FE01719698E011920B
:102C50009A95E9F7ED8AFE8A0F8B188F2D813E81B8
:102C60004F8158856DA17EA18FA198A50E940E1756
:102C70003B014C012D853E854F85588969A57AA574
:102C80008BA59CA50E940E172D893E894F89588DD2
:102C9000260F371F481F591F260D371D481D591D68
:102CA0002D8B3E8B4F8B588F6D887E888F88988CAC
:102CB0002A2D3B2D4C2D5D2D662D772D882D992DA0
:102CC000E2E1AC960C944917A0E1B0E0EAE6F6E147
:102CD0000C942D17222E332E442E552E662E772E31
:102CE000882E992E002309F466C088E0FE013196F3
:102CF00011928A95E9F729833A834B835C836D832C
:102D00007E838F829887E0E2E01B1E16CCF52D8132
:102D10003E814F815885602F772767FD7095DA01D6
:102D2000C901062E04C0B695A795979587950A9474
:102D3000D2F78D879E87AF87B88B04C0220F331FD1
:102D4000441F551FEA95D2F789819A81AB81BC81D6
:102D500004C0B695A795979587956A95D2F7282BC5
:102D6000392B4A2B5B2B29873A874B875C87298431
:102D70003A844B845C846D847E848F8498881BC0E5
:102D80001D861E861F86188A2E2F332727FD309515
:102D9000309521953F4F8D819E81AF81B88504C0CC
:102DA000B695A795979587952A95D2F789879A879B
:102DB000AB87BC87DCCF222D332D442D552D662DBE
:102DC000772D882D992DE2E160960C944917AA1B66
:102DD000BB1B51E107C0AA1FBB1FA617B70710F006
:102DE000A61BB70B881F991F5A95A9F78095909538
:102DF000BC01CD01089597FB092E07260AD077FD67
:102E000004D0E5DF06D000201AF4709561957F4F5D
:102E10000895F6F7909581959F4F0895629FD00190
:102E2000739FF001829FE00DF11D649FE00DF11D85
:102E3000929FF00D839FF00D749FF00D659FF00D34
:102E40009927729FB00DE11DF91F639FB00DE11D21
:102E5000F91FBD01CF01112408952F923F924F9287
:102E60005F926F927F928F929F92AF92BF92CF921A
:102E7000DF92EF92FF920F931F93CF93DF93CDB723
:102E8000DEB7CA1BDB0B0FB6F894DEBF0FBECDBF9B
:102E900009942A88398848885F846E847D848C846C
:102EA0009B84AA84B984C884DF80EE80FD800C8175
:102EB0001B81AA81B981CE0FD11D0FB6F894DEBF58
:102EC0000FBECDBFED010895DC0101C06D934150EF
:082ED0005040E0F70895FFCF28
:0C2ED8000100010022FFFFFFFFFFFF02CE
:00000001FF
