S01700006275696C642F697269732F6D61696E2E7372656343
S11300000C9469000C9488000C9488000C9488006B
S11300100C9488000C9488000C9488000C9488003C
S11300200C9488000C9488000C9488000C9488002C
S11300300C9488000C943A040C9488000C941E03CD
S11300400C94F20D0C942A0E0C94F6030C940104F7
S11300500C940C040C9488000C9488000C94880074
S11300600C943F030C9488000C9488000C94880032
S11300700C9488000C9488000C9488000C948800DC
S11300800C9488000C9488000C9488000C948800CC
S11300900C9488000C9488000C9488000C948800BC
S11300A00C9488000C9488000C9488000C948800AC
S11300B00C9488000C9488000C9488000C9488009C
S11300C00C9488000C9488000C94880000020E069E
S11300D00C0411241FBECFEFD1E2DEBFCDBF12E06E
S11300E0A0E0B2E0E8E3FBE200E00BBF02C007904F
S11300F00D92AE30B107D9F713E0AEE0B2E001C023
S11301001D92A53DB107E1F70E9424120C949B15A2
S11301100C9400008FB7F894992708958FBF089521
S1130120CF93DF93FC01DC0111962181662351F00A
S1130130ED0189819927982F882733272062822B04
S1130140932B09C0ED0189819927982F882733279C
S1130150822B932B8F7D8183892F99278983DF912C
S1130160CF910895282F9FB7F894E82FFF27E45ADA
S1130170FD4F80818F3F81F4E091CF03E21771F44A
S11301800BC02093BE0304C0FF27E45AFD4F208315
S11301902093CF0320E007C025E005C08091BE0373
S11301A08F3F91F7EECF892F99278FBF822F992701
S11301B00895882319F08CB5806402C08CB58F7BB8
S11301C08CBD08950F931F93982F1FB7F8948091B7
S11301D01002823099F580910B02891779F580918C
S11301E0090220E030E08F3F11F421E030E0232BBE
S11301F0F1F49FEF90930B028F3F19F42FEF30E04F
S11302000DC0282F3327F901E35EFC4F80818093D2
S113021009028F3F11F490930A02908320931E03E6
S113022081E08093100289E00E94B20005C08FEF44
S113023080930B021092100201E001C000E0812FB4
S113024099278FBF1FB7F89480911002882311F467
S11302500E94D900812F99278FBF90E0013009F4C3
S113026091E081E09827892F99271F910F91089594
S1130270882319F08CB5806802C08CB58F778CBD4B
S113028008950F931F9380E00E94D9000FB7F8944C
S11302901127229A2398219A8CB580618CBD80E025
S11302A00E9438018DB581608DBD8CB5877F8CBD72
S11302B08CB58B7F8CBD8CB58E7F8CBD81E00E940C
S11302C0D9000FBF1F910F9108958FB7F894209113
S11302D08D0330918E0340918F0350919003E091F0
S11302E08400F0918500B09B08C02F5F3F4F4F4FB3
S11302F05F4FE0918400F091850099278FBFC90179
S1130300772766279F0144275527622B732B842B5D
S1130310952B0895FC0180A9826080AB08958C968A
S11303200895AC01EFB7F8942091840030918500D2
S1130330C901841B950B03968617970720F0B90112
S11303406D5F7F4F02C0640F751F6115710511F455
S113035061E070E0615070407093890060938800A0
S113036082E086BB80916F00826080936F008E2F45
S113037099278FBF08952FB7F89433278093680285
S11303802FBF85E00E94B2000895FC018281218183
S11303909927982F88273327822B932B85FF1FC0FB
S11303A087749C7C81549848D1F4878146812FB707
S11303B0F894332760910302709104022FBF20E068
S11303C09927982F88275527842B952B86179707CD
S11303D009F021E081E02827822F9927089580E001
S11303E090E00895EF92FF920F931F937C018FB7D3
S11303F0F894992700916B0210916C020F5E1E4FC6
S113040010936C0200936B02015111408FBF87E07F
S11304100E94B200C801B7010E942A158A5D9E4F4E
S11304201F910F91FF90EF900895FC0182A593A571
S11304300895EF920F931F93AE2D99E0899FF001D9
S11304401124EE56FC4F40835183628373830483EB
S1130450158326833783A17080858E7F8A2B8260E3
S1130460808781E00E94B2001F910F91EF90089560
S11304707FB7F8946091B2002091570230915802EE
S11304804091590250915A02B99B11C08091B30016
S11304909091B200280F311D411D511D2F5F3F4F18
S11304A04F4F5F4F290F311D411D511D04C0260FB1
S11304B0311D411D511D872F99278FBFCA01B901D5
S11304C008959FB7F894282F332720FF02C012986D
S11304D001C0129A21FF02C0119801C0119A22FF93
S11304E002C0109801C0109A892F99278FBF0895D0
S11304F0DF92EF92FF920F931F938FB7F894282FF8
S11305003327D22E9091B3008091B20047B398174D
S113051011F041FF02C02FBF71C080917702882380
S1130520E1F10E943802E0904E02F0904F020091F7
S11305305002109151022091C2033091C3034091A3
S1130540C4035091C5036E197F09800B910B621788
S113055073078407950720F01092770271E01EC09C
S11305602E0D3F1D401F511F80915702909158023C
S1130570A0915902B0915A02281B390B4A0B5B0B0C
S1130580273E31054105510540F4822F223010F0F9
S113059070E005C070E082E002C070E086EE682F73
S11305A061508091B60083FDFCCF8091B200681742
S11305B009F46F5F2091570230915802409159021B
S11305C050915A02DA01C9010196A11DB11D860F8D
S11305D0911DA11DB11D82179307A407B50710F43F
S11305E0622F60958091B60083FDFCCF6093B300C9
S11305F0DFBE772319F080E00E94B2001F910F91B3
S1130600FF90EF90DF900895AFB7F894BB27E1E037
S1130610E093770260934E0270934F0280935002EE
S1130620909351022093C2033093C3034093C403B5
S11306305093C503AFBF0E94780208951F920F9292
S11306400FB60F9211248F938091B0008093B00065
S11306508091B60081FDFCCF8F910F900FBE0F905B
S11306601F9018951F93182F81E00E94D9001EBD7A
S11306700DB407FEFDCF8EB599271F9108951F92E3
S11306800F920FB60F9211248F929F92AF92BF9246
S1130690CF92DF92EF92FF920F931F932F933F938A
S11306A04F935F936F937F938F939F93AF93BF9376
S11306B0CF93DF93EF93FF932EB5E091A403F091D2
S11306C0A503309739F08091890390918A03E80F4C
S11306D0F91F20838091890390918A030196909356
S11306E08A038093890380E00E943801C0918903C2
S11306F0D0918A038091130290911402C817D907EC
S113070008F046C00091C6031091C7038090A4036B
S11307109090A5030F2EFAE0AF2EBB24F02DAC0E63
S1130720BD1E8A159B0508F45C016401CC0EDD1E18
S11307307801EC0EFD1E15C00115110519F0F70125
S1130740808101C080E00E9432038114910411F081
S1130750F601808321960894C11CD11C0894E11CE5
S1130760F11CC5010197C817D90730F381E00E9435
S113077038010115110531F00C0F1D1FF80180819E
S11307808EBD01C01EBCD0938A03C093890311C0DF
S11307901092A5031092A4031092C7031092C603EB
S11307A0109214021092130210928A031092890379
S11307B08EB5FF91EF91DF91CF91BF91AF919F9152
S11307C08F917F916F915F914F913F912F911F91E5
S11307D00F91FF90EF90DF90CF90BF90AF909F90DC
S11307E08F900F900FBE0F901F90189578941F92C2
S11307F00F920FB60F9211240F900FBE0F901F90FF
S1130800189578941F920F920FB60F9211240F909F
S11308100FBE0F901F90189578941F920F920FB6E9
S11308200F9211242F933F938F939F93AF93BF9372
S11308302FB7F894332780918D0390918E03A09164
S11308408F03B09190030196A11DB11D80938D0378
S113085090938E03A0938F03B09390032FBFBF9107
S1130860AF919F918F913F912F910F900FBE0F9059
S11308701F9018951F920F920FB60F9211242F9369
S11308803F934F935F936F937F938F939F93AF9314
S1130890BF93EF93FF938091B0008093B000809159
S11308A0B60081FDFCCF8091B30099270196AA2759
S11308B0BB27209157023091580240915902509120
S11308C05A02280F391F4A1F5B1F20935702309387
S11308D058024093590250935A0278940E94780225
S11308E0FF91EF91BF91AF919F918F917F916F9104
S11308F05F914F913F912F910F900FBE0F901F90DA
S1130900189521E02093AE0320931C0320918400CA
S113091030918500BC01C9010E94910108950F9393
S11309201F93CF93DF93182F0FB7F8948091100281
S1130930882311F40E944101802F99278FBF8FB71C
S1130940F894C82FDD272C2F80911002882361F49E
S113095081E08093100210931E0389E00E94B2008C
S1130960CFBF80E090E021C0E12FFF27E35EFC4F82
S113097080818F3F89F4E0910A02E11789F40CC069
S11309801093090204C0FF27E35EFC4F1083109309
S11309900A0280E090E002C085E090E02FBF05C02D
S11309A0809109028F3F79F7EBCFDF91CF911F91AF
S11309B00F9108958FB7F894282F3327922F8091A1
S11309C00B02882331F480911002823011F42FBF7E
S11309D013C09FBF8FB7F894282F3327809110023C
S11309E0882369F482E08093100210920B022FBFD7
S11309F00E944101209A289A81E090E008952FBF37
S1130A0080E00E948F0480E090E008951F93982F67
S1130A101FB7F89480910F02823099F580910802F3
S1130A20891779F58091060220E030E08F3F11F4B8
S1130A3021E030E0232BF1F49FEF909308028F3FE5
S1130A4019F42FEF30E00DC0282F3327F901EF58A8
S1130A50FD4F8081809306028F3F11F4909307022B
S1130A60908320936E0281E080930F0282E00E94C3
S1130A70B20005C08FEF8093080210920F0221E0AC
S1130A8001C020E0812F99278FBF90E0213009F425
S1130A9091E081E09827892F99271F9108959C015F
S1130AA080911102882319F085E090E00895309335
S1130AB0A8032093A70381E08093110210925403AA
S1130AC085E00E94B20080E090E00895CF93DF9328
S1130AD0EC018FE38A87809180028F5F809380028C
S1130AE08B838091550290915602892B11F025E059
S1130AF017C088A599A5892B21F061E0CE010E9439
S1130B009000CE010E944F059927282F882341F495
S1130B10D0935602C093550210927402109273023D
S1130B20822F9927DF91CF9108951F93CF93DF935D
S1130B30182FFA01422F2D3118F086E090E08AC078
S1130B40DF011196ED018981218150E09927982FC9
S1130B5088273327822B932B87749C7C8154984855
S1130B6009F451E0552329F481E4818388E8ED01F7
S1130B708983435F40832FB7F8943327809103021E
S1130B80909104022FBF8087892F992781872FB7DF
S1130B90F8943327809105022FBF99278483158207
S1130BA013876683872F992787838FB7F894282F15
S1130BB0332780910F02882371F482E080930F021F
S1130BC0109208022FBFCF010E9466059927182FA3
S1130BD0882399F00FC02FBFF0937002E0936F0247
S1130BE08FB7F894C82FDD272C2F80910F0288230C
S1130BF099F406C080E00E940605812F99272AC037
S1130C0081E080930F0210926E0282E00E94B20093
S1130C10CFBF80E090E01EC0809171028F3F89F4C5
S1130C20E0910702EE2369F010C01092060204C09E
S1130C30FF27EF58FD4F10821092070280E090E0EA
S1130C4002C085E090E02FBF05C0809106028F3F6F
S1130C5079F7EBCFDF91CF911F9108951F93CF9335
S1130C60DF93182FEB01E82FFF27EE0FFF1FE55747
S1130C70FC4F1182108210920C02E0918B03F091D0
S1130C808C03309721F08091C10380FF0FC081E075
S1130C9080930C0203C08BE00E94B2001123C1F4C4
S1130CA0CB51D240A9F410920E0212C020812D50D3
S1130CB0332767817727762F662786819927682BC4
S1130CC0792BAF0183850E949505882339F3E3CFFF
S1130CD0DF91CF911F9108951F93CF93DF93182F26
S1130CE0C0915502D09156021092560210925502AC
S1130CF08091A3038D7F8093A303809173029091CD
S1130D00740299A788A78A858F3389F480E00E94AA
S1130D10060580910C02882351F460918B03709135
S1130D208C036C177D0719F4412F0E942E06DF9166
S1130D30CF911F910895AF92BF92CF92DF92EF921D
S1130D40FF920F931F935B016C0160919A0361FF03
S1130D501FC02091920330919303409194035091CA
S1130D609503E0909603F0909703009198031091F7
S1130D709903D601C501821B930BA40BB50B8E15E9
S1130D809F05A007B10720F0E2E9F3E090E021C05D
S1130D90EBE9F3E06091A30361FF8CC020919B0316
S1130DA030919C0340919D0350919E03E0909F03DA
S1130DB0F090A0030091A1031091A203A21AB30A18
S1130DC0C40AD50AAE14BF04C006D10608F472C022
S1130DD091E060FF04C080858D7F808708C02E0D60
S1130DE03F1D401F511F2083318342835383992326
S1130DF021F0913009F05EC054C080910E02882326
S1130E0009F058C080910002909101028093280259
S1130E10892F9927809327028FEF80932102809353
S1130E20220288E08093260280918B0390918C03A8
S1130E30892B29F54BE152E050938C0340938B03AB
S1130E408FE080931B0280910C028823A9F01092FA
S1130E500C0222E06FEF7FEF88E00E94950599274E
S1130E60282F882349F081E080930C0210928C0390
S1130E7010928B03222319F481E080930E02809157
S1130E800202882311F087E001C080E00E94610221
S1130E9090E080910202882309F491E09093020289
S1130EA009C08091550290915602892B19F083E074
S1130EB00E94B20081E00E94B2001F910F91FF9046
S1130EC0EF90DF90CF90BF90AF9008954F925F92D4
S1130ED06F927F928F929F92AF92BF92CF92DF9246
S1130EE0EF92FF920F931F93CF93DF932C01809186
S1130EF01202882309F04DC18091C803853009F09E
S1130F0048C10E94DA04882309F443C18091AF03E5
S1130F10882309F03EC1E201E096F20180A982FD36
S1130F2002C090E003C0F20192A99F708091550322
S1130F30981781F090935503289885EC8EBD0DB4D5
S1130F4007FEFDCF8EB590689EBD0DB407FEFDCFA4
S1130F508EB5289A42010894811C911CF401818168
S1130F60F201218140E09927982F88273327822B8B
S1130F70932B87749C7C8154984809F441E0442362
S1130F8001F1289886E88EBD0DB407FEFDCF8EB51D
S1130F901EBC0DB407FEFDCF8EB5289A99278F711C
S1130FA0907020917F0240917202240F312D311DE7
S1130FB043E0359527954A95E1F7281739070CF44E
S1130FC0E8C0289882EC8EBD0DB407FEFDCF8EB527
S1130FD089E08EBD0DB407FEFDCF8EB5289A0E9420
S1130FE065017B018C01888184FD03C0C0E0D0E0F1
S1130FF006C0F20180818550E201C80FD11D2898F6
S113100081E88EBD0DB407FEFDCF8EB51EBC0DB4B8
S113101007FEFDCF8EB5289A8F71893021F087E0C5
S11310208093C803B6C08FB7F89499272F9A20915C
S11310308400309185008FBF2F98289880E68EBD5C
S1131040F20190810DB407FEFDCF8EB59EBD792FC0
S11310507250773010F4672F01C067E0F401962FC7
S113106041910DB407FEFDCF8EB54EBD9150C1F731
S11310706150F401E60FF11D6F5F31962E193F099F
S11310802E553F4F3901882477FC8094982C6E0CA0
S11310907F1C801E911E209719F4972F961B1FC04A
S11310A088819981AA81BB8186199709A809B90900
S11310B08B83292F3A2F4B2F55272A839D014427B1
S11310C0552729838B2F9927AA27BB278883E5CF08
S11310D020810DB407FEFDCF31968EB52EBD915003
S11310E0B8F70DB407FEFDCF8EB5289A289882EC88
S11310F08EBD0DB407FEFDCF8EB586E08EBD0DB45A
S113110007FEFDCF8EB5289A209779F18881E98072
S11311102A81AB80332744275527542F432F322F5E
S113112022279927AA27BB27B82FAA2799278827D8
S1131130FF24002711278701FF24EE248E299F29ED
S1131140A02BB12BBB24CC24DD248A299B29AC29D8
S1131150BD29282B392B4A2B5B2B260D371D481D07
S1131160591D288339834A835B83C2010E948A0103
S1131170C2010E948F01FC0160827182828293828B
S113118086E08093C80384E08093120280E090E0BC
S113119002C085E090E0DF91CF911F910F91FF9005
S11311A0EF90DF90CF90BF90AF909F908F907F9003
S11311B06F905F904F900895AF92BF92CF92DF925D
S11311C0EF92FF920F931F93CF93DF938091AF031E
S11311D0882309F413C10E94DA04882309F40EC198
S11311E08FB7F8949927C0911A03D0911B038FBF2E
S11311F01092AF0328988FE88EBD0DB407FEFDCF83
S11312008EB51EBC0DB407FEFDCF8EB5289A982F5F
S1131210A82EBB24A0FE0CC080911202833011F0D2
S1131220873031F485E08093C80388E0809312020C
S1131230A2FE5FC080911202863019F4109212024D
S113124003C0882309F055C0943009F041C02898A0
S113125086E88EBD0DB407FEFDCF8EB51EBC0DB461
S113126007FEFDCF2EB5289A2F7180917202982F18
S113127096959695322F391B830F80937202E091D5
S11312805202F091530280A98B7F886080AB22AB1D
S11312900E9465016B017C0100915202109153027E
S11312A0C8010E948A01C8010E948F01FC01CC1967
S11312B0DD092797CE01AA2797FDA095BA2F8C0D9B
S11312C09D1DAE1DBF1D80839183A283B3830EC079
S11312D0E0915202F091530280A9877F80ABE091A4
S11312E05202F091530280A98D7F80AB85E08093F8
S11312F01202A3FE83C080911202843009F04BC015
S113130085E08093C8031092120280917A028330A0
S113131019F410927A0272C0E0915203F0915303CF
S1131320828121819927982F88273327822B932B19
S113133085FF29C087749C7C8154984821F5878156
S113134026819927982F88273327822B932B8F5F09
S11313509F4FC9F090E080911C03882309F491E029
S1131360992389F012E01093AE0381E080931C036B
S1131370809184009091850061EE72E00E94910159
S113138010937A023BC010927A021092C90380E053
S11313900E94BB0133C0853089F58091C803873032
S11313A091F4289882EC8EBD0DB407FEFDCF8EB566
S11313B086E08EBD0DB407FEFDCF8EB5289A85E07C
S11313C08093C80317C020917F02289886E88EBDB9
S11313D00DB407FEFDCF8EB51EBC0DB407FEFDCFC8
S11313E08EB5289A8F71922F96959695891B280F02
S11313F020937F0289E08093120208C09091120228
S1131400992309F4E2C2993009F00FC2289880E2C6
S11314108EBD0DB407FEFDCF8EB51EBC0DB407FE08
S1131420FDCF8EB5482F5527433008F49EC3842F33
S113143099278A970CF099C31EBCE0915202F0914F
S113144053024083542F5250573010F4452F01C09B
S113145047E09F012F5F3F4F942FF90160E070E058
S11314600DB407FEFDCF8EB51EBC80838191682725
S1131470062E6295607F6025072E762F62956F7029
S11314800626669576276727660F660F660F602522
S1131490915031F74150D901A40FB11D4F5F1196FE
S11314A0E0915202F09153028181282F3327277053
S11314B030702230310509F491E09923B9F080911C
S11314C07A02823081F48381E0915203F0915303D4
S11314D09381891741F490E02230310509F091E0BD
S11314E081E098270EC080E090E00DC08FB7F8949B
S11314F0282F332790E080919103833008F491E002
S11315002FBF892F9927892B09F42FC3952F941B5B
S113151018C00DB407FEFDCF8EB51EBC8C938D9103
S11315206827062E6295607F6025072E762F6295C8
S11315306F700626669576276727660F660F660F17
S11315406025915030F70DB407FEFDCF8EB51EBC5B
S11315509B012827022E2295207F2025032E322F3F
S113156022952F700226269532272327220F220F39
S1131570220F20250DB407FEFDCF8EB51EBC2827F3
S1131580022E2295207F2025032E322F22952F70A4
S11315900226269532272327220F220F220F2025E9
S11315A00DB407FEFDCF8EB5E0915202F0915302C7
S11315B081AB289A85E08093C80310921202232BF2
S11315C009F0FFC1E0905202F090530257010894D1
S11315D0A11CB11CF701818190E08770823009F46D
S11315E091E0292F3327122F80917A028230C9F497
S11315F080916F008D7F80936F0010921C03E091A7
S11316005203F091530380A9222311F0816001C099
S11316108E7F80AB10927A021092C90380E00E9400
S1131620BB01112309F0FCC0C7010E94C501882336
S1131630A9F085E08093560382E0809357031092CB
S11316405803F50182818093590386E593E00E9453
S11316506607882319F483E080937A02009184005A
S113166010918500C7010E94C501882311F0045E12
S11316701C4F109376020093750280918400909120
S11316808500081B190BC801101611066CF4209173
S1131690C903222331F40E94810480E88093C903A2
S11316A003C020682093C903F50180852781992709
S11316B0582F44273327422B532B80915B02282F2A
S11316C03327F901EE0FFF1FE055FC4F8081918114
S11316D07091A6038417950769F4F901E653FC4F4A
S11316E08081871709F467C0872F8F5F8093A603D3
S11316F080831DC000E010E080E090E0C0EBD3E008
S1131700EAECF3E0DF01682F9C018881998184175A
S1131710950779F420935B029091A6038C91891725
S113172009F449C0892F8F5F8093A6038C9300E846
S113173029C08081972F981B091710F4092F122FA5
S11317406F5FC901019611962296319685309105F5
S1131750D1F66530B9F410935B02A12FBB27FD01CC
S1131760EE0FFF1FE055FC4F518340838091A60389
S11317708F5F8093A603FD01E653FC4F8083A05343
S1131780BC4F1C929091A603892F8F778F3779F4E1
S11317900F3768F0EAECF3E0292F207880818F6717
S11317A089132083319633E0EF3CF307B9F7809136
S11317B05B02282F3327F5019281A22FBB27FD015D
S11317C0E053FC4F808180FF07C0FD01E755FC4FCB
S11317D08081981729F102C081608083A755BC4F8E
S11317E09C93CFB6F894809191038330B0F4E09148
S11317F05402E80FE33008F0E350FF27EE0FFF1F19
S1131800EB5EFD4F00811181F182E0828F5F809356
S1131810910386E00E94B20078018C2D99278FBF36
S1131820F0925302E0925202C3C0892F8150833058
S113183008F09CC081508230E0F43091C80331300C
S1131840C1F420E080911C03882309F421E02223C1
S113185081F02F9883E08093AE0330931C03809132
S11318608400909185006BE273E00E94910182E014
S113187068C0933009F042C08091C803833009F0F6
S113188097C00E94DA048823C9F128988FE88EBD96
S11318900DB407FEFDCF8EB51EBC0DB407FEFDCF03
S11318A08EB5289A8091810080648093810080E2C3
S11318B086BB80916F00806280936F0090916D026F
S11318C0289888EC8EBD0DB407FEFDCF8EB59066CA
S11318D09EBD0DB407FEFDCF8EB5289A289882ECE4
S11318E08EBD0DB407FEFDCF8EB586E08EBD0DB462
S11318F007FEFDCF8EB5289A84E023C080911202A2
S11319008150823000F58091C8038530E1F40E9453
S1131910DA048823C1F0289882EC8EBD0DB407FE4A
S1131920FDCF8EB583E08EBD0DB407FEFDCF8EB521
S1131930289A80916F008F7D80936F001092AF037F
S113194083E08093C80390911202913041F4809116
S1131950C8038330B1F52F9A9093C80325C0923001
S113196039F58091C803833061F51EC0973001F5C5
S11319700E94DA048823E1F090916D02289888ECA3
S11319808EBD0DB407FEFDCF8EB590669EBD0DB421
S113199007FEFDCF8EB5289A8091C803853021F4C7
S11319A084E08093C80304C088E08093120204C0DA
S11319B080911202883029F41092120284E00E946D
S11319C0B20080911202882331F58091C8038530DA
S11319D0F9F48091AF038823D9F480917A028823A3
S11319E0B9F48091C903882399F490E080911C0391
S11319F0882309F491E0992359F0809111028130F0
S1131A0039F485E00E94B20080911202882319F40F
S1131A1080E00E94E20080911C03823009F098C0AB
S1131A2010921C03C090AE03F2E0CF1609F46CC010
S1131A3023E0C21609F470C031E0C31609F088C06F
S1131A4020917502309176028091840090918500F6
S1131A504091C903403859F41092C903809111028E
S1131A60813009F075C085E00E94B20071C089011F
S1131A70081B190B47FF03C010161106ECF0C091A8
S1131A807802D091790280917A028823A9F4CE0158
S1131A900E9466079927882351F488A98E7F88AB12
S1131AA0C0927A02D0935303C093520329C099275A
S1131AB0F82E882329F102C065E0F62E2091C9038F
S1131AC0822F99278F77019759F4207822602093E9
S1131AD0C90380E198E00E94F2010E94810438C0A9
S1131AE027FF0AC0101611063CF480E88093C9034E
S1131AF0C8010E94810402C01092C9038F2D09C03D
S1131B0083E08093C90324C010927A021092C9031F
S1131B1080E00E94BB011CC08091C803823019F48C
S1131B20C092C80313C080911202863079F41092D7
S1131B301202289881E88EBD0DB407FEFDCF8EB544
S1131B401EBC0DB407FEFDCF8EB5289A0E94DE0D93
S1131B508FB7F894282F332780916A02813061F07F
S1131B6081E080936A022FBF31CB289A85E080936D
S1131B70C8031092120225CF10926A022FBFDF9180
S1131B80CF911F910F91FF90EF90DF90CF90BF9076
S1131B90AF9008958FB7F894282F332780916A0265
S1131BA0815080936A02803811F02FBF089581E03C
S1131BB080936A022FBF0E94DC0808958FB7F894BF
S1131BC0282F332780916A02882329F08068809324
S1131BD06A022FBF089581E080936A022FBF0E949A
S1131BE0DC08089578941F920F920FB60F92112477
S1131BF02F933F934F935F936F937F938F939F9311
S1131C00AF93BF93EF93FF938091840090918500ED
S1131C1020918600309187008FB7F89499273093EC
S1131C201B0320931A0321E02093AF038FBF0E946C
S1131C30DE0DFF91EF91BF91AF919F918F917F91B5
S1131C406F915F914F913F912F910F900FBE0F9025
S1131C501F90189578941F920F920FB60F9211242B
S1131C602F933F934F935F936F937F938F939F93A0
S1131C70AF93BF93EF93FF9380916F008D7F809319
S1131C806F0078949FB7F89480911C03813019F405
S1131C9082E080931C03892F99278FBF0E94DE0D59
S1131CA0FF91EF91BF91AF919F918F917F916F9130
S1131CB05F914F913F912F910F900FBE0F901F9006
S1131CC018951F938FB7F894992720916A022F5F74
S1131CD020936A028FBF80911102882311F015E0CE
S1131CE023C0809112028823E1F48091C8038130DB
S1131CF049F490E080911C03882309F491E099232E
S1131D0081F005C0853019F489E090E00CC083E0CF
S1131D10809312020E94DE0D84E08093110210E091
S1131D2003C085E090E0182F0E94CA0D812F9927E7
S1131D301F9108952F923F924F925F926F927F92DC
S1131D408F929F92AF92BF92CF92DF92EF92FF92C7
S1131D500F931F93CF93DF93CDB7DEB729970FB6B9
S1131D60F894DEBF0FBECDBF382F853009F444C1CF
S1131D70863090F4823009F4DFC0833030F4882355
S1131D8041F1813009F02AC357C0833009F404C1FA
S1131D90843009F023C316C1883009F447C289305E
S1131DA038F4863009F4B3C1873009F017C3E2C1AF
S1131DB08A3039F08A3008F44EC28B3009F00EC3F1
S1131DC0FCC28091C103882309F408C351E040E0B8
S1131DD0D3C280916902882361F52091BA033091BE
S1131DE0BB034091BC035091BD03EFB7F894FF27A8
S1131DF060914E0270914F02809150029091510275
S1131E00E090C203F090C3030091C4031091C50392
S1131E106E0D7F1D801F911FEFBF2093BA03309377
S1131E20BB034093BC035093BD03109269020E940C
S1131E3004030E9438026DC00E9438025B016C01E9
S1131E408FB7F8949927109277028FBF80919A03E5
S1131E5081FF25C08091920390919303A0919403F4
S1131E60B0919503A6019501281B390B4A0B5B0B16
S1131E70E0909603F09097030091980310919903D2
S1131E80E21AF30A040B150B3FEFE3163FEFF306D8
S1131E903FEF03073FE7130711F061E009C09FEF2D
S1131EA0E92E9FEFF92E9FEF092F9FE7192F60E08E
S1131EB08091A30381FF21C080919B0390919C0397
S1131EC0A0919D03B0919E03A6019501281B390B97
S1131ED04A0B5B0BDA01C90120919F033091A003E7
S1131EE04091A1035091A203281B390B4A0B5B0BB1
S1131EF02E153F05400751072CF0662309F46EC2E6
S1131F00A801970112161306140615062CF0C60133
S1131F10B5010E949B0662C22093BA033093BB03AF
S1131F204093BC035093BD0381E080936902C601D2
S1131F30B5010E94040352C28FB7F89499272091E7
S1131F406E022093080230930F028FBF8091080223
S1131F50882309F043C280916F02909170020E941D
S1131F606605082F1127002309F438C280E00E9477
S1131F70060520916F023091700280910C02882333
S1131F8009F02CC260918B0370918C036217730764
S1131F9009F024C2402F1CC2E0915502F091560270
S1131FA080A591A5892B21F061E0CF010E949000CA
S1131FB080915502909156020E944F05882309F49E
S1131FC00DC29DC08091110210921102843059F407
S1131FD00E943802AB01BC01EE2408EB1BE020E0B8
S1131FE030E080E089C0853009F4F8C1863009F416
S1131FF0F5C180931102F2C18FB7F894992710911B
S113200068028FBF80911102823011F4112339F0DC
S1132010809154038F5F80935403863020F083E0D3
S1132020809311023CC08FB7F894992720916A02DB
S11320302F5F20936A028FBF2091A7033091A803DA
S11320408091C9038823D1F490E080911C038823F4
S113205009F491E0992391F0309379022093780266
S113206081E08093C90386EB93E20E94F2010E940F
S1132070810482E08093110210E00AC0809154032D
S1132080853011F483E001C081E08093110215E0F2
S11320900E94CA0D80911102833009F09FC11092F1
S11320A01102E091A703F091A803209173023091EB
S11320B074022F5F3F4F309374022093730280A900
S11320C080FF02C080E020C0E0915502F0915602EA
S11320D080A591A528173907B0F4CF010E941502F5
S11320E08C01892B61F00E943802AB01BC012227CC
S11320F0332781E0E82E81E00E9419026FC183E05A
S11321000E94B2006BC1812F0E946C0667C18FB719
S1132110F894282F332780919103882309F42AC146
S1132120E0915402FF27EE0FFF1FEB5EFD4FA081ED
S1132130B1812FBF8FB7F89499278FBF9FB7F894B9
S113214080915402E82FFF27EE0FFF1FEB5EFD4F37
S1132150B183A0838F5F80935402833010F0109278
S1132160540280919103815080939103892F992780
S11321708FBFCDCFFFB7F983F89420907B023090C6
S11321807C0240907D0250907E026624772488244D
S1132190AEE4AA2EF3E8BF2ECC24DD24EE24FF24E3
S11321A000E010E0222D332D442D552D662D772D82
S11321B0882D90E00E94A9132A833B834C835D837E
S11321C06E837F8388879987822E932EA42EB52EC3
S11321D02401350100E20E94A714A22EB32EC42EBE
S11321E0D52EA301920156954795379527952A0D2B
S11321F03B1D4C1D5D1D57FF05C05F772F5F3F4F93
S11322004F4F5F4F20937B0230937C0240937D02BB
S113221050937E026981862F99278FBF8FB7F894D8
S1132220992730936C0220936B0213C08FB7F894F4
S113223099271092A5031092A4031092C703109239
S1132240C603109214021092130210928A03109281
S113225089038FBFC3C02FB7F894332780911E031F
S113226080930B0282E0809310022FBF80910B02B7
S1132270882309F0B3C0209A289A8091C803882340
S113228009F075C08EEF91E0019701960197E1F78F
S113229016982F9886E090E0019701960197E1F750
S11322A0169A289883EC8EBD0DB407FEFDCF8EB52B
S11322B01EBC0DB407FEFDCF8EB5289A289882EC7B
S11322C08EBD0DB407FEFDCF8EB588E08EBD0DB476
S11322D007FEFDCF8EB5289A8EEF91E00197019607
S11322E00197E1F728988EEC8EBD0DB407FEFDCF63
S11322F08EB58DE48EBD0DB407FEFDCF8EB5289A44
S1132300289889EC8EBD0DB407FEFDCF8EB587EC01
S11323108EBD0DB407FEFDCF8EB5289A289885ECA6
S11323208EBD0DB407FEFDCF8EB580E88EBD0DB415
S113233007FEFDCF8EB5289A109255038BE080934B
S11323406D02289888EC8EBD0DB407FEFDCF8EB5C6
S11323508BE68EBD0DB407FEFDCF8EB5289A2F9A5D
S113236081E08093C80380E00E94E20037C00E94AD
S1132370DE0D34C02FBF32C09091C103852F892355
S1132380B9F0E42FFF27EE0FFF1FE557FC4F208124
S1132390318111821082852F809598239093C103F7
S11323A0442331F42B513240B1F410920E0213C085
S11323B04F5F483098F4550FDFCF80910C02E82F1F
S11323C0FF27EE0FFF1FE557FC4F6081718141E04D
S11323D00E942E0603C0550F41E0CECF29960FB6BA
S11323E0F894DEBF0FBECDBFDF91CF911F910F9147
S11323F0FF90EF90DF90CF90BF90AF909F908F9021
S11324007F906F905F904F903F902F9008958091B0
S1132410BE038F3FB1F0282F3327F901E45AFD4F53
S113242080818093BE038F3F11F48093CF038FEF9D
S113243080832F3F31F0822F0E949A0E81E090E03A
S1132440089580E090E008951F931FB7F8944CE03E
S113245050E06FEF70E08CE592E00E9494158FEFEE
S11324608093BE038093CF0356985E9854985C98EB
S113247080916F008F7D80936F00209A289A279A0D
S11324802F980E9A169A8FE193E0909353028093BB
S1132490520210927F028AE58093720281E0809357
S11324A0810080E28093B60083E08093B100809144
S11324B08400909185004AE7209184003091850042
S11324C02817390708F44150442311F0C901F4CF07
S11324D09091B2008091B2008917E1F320918400B9
S11324E0309185009091B2008091B2008917E1F398
S11324F08091840090918500821B930B409625E087
S1132500969587952A95E1F79093C0038093BF032E
S11325101092B1008091B10080938100809181007C
S11325208093B6001092B20010928500109284003D
S11325308FEF87BB87B386BB8091B6008571E1F7C7
S11325400A9A099A089A129A119A109A18B88FEF4F
S113255087B90C9814981092850010928400809189
S11325606F00816080936F0080918100887F82601A
S11325708093810081E085BF0E9407128823E1F7E0
S11325808FEF80931D0380E00E948F04209100024E
S1132590309101022F5F3F4FC901AA27BB278093C7
S11325A07B0290937C02A0937D02B0937E0281E82B
S11325B092E09093160280931502C39690931802AA
S11325C08093170287EE92E090931A028093190287
S11325D08FEF9FEF9093B1038093B0039093B30375
S11325E08093B2039093B5038093B4039093B7039D
S11325F08093B6039093B9038093B803809100024B
S11326008295807F809380028FEF80937102809106
S1132610B60080628093B6008091B60081FDFCCF45
S113262082E08093B0008091B60080FDFCCF83E00F
S11326308093B1008091B60083FDFCCF86EE809339
S1132640B300809170008260809370000E947802D1
S11326500E9407128823E1F7812F99278FBF78946E
S11326600E94610E8FB7F894482F552757C0809168
S11326707000992783709070892B19F4E5E0F0E0DD
S113268014C08091B6008A71E1F78091B3009091F3
S1132690B200891B8C3038F08091B200853F18F469
S11326A0E3E0F0E002C0E2E0F0E080916E008670CA
S11326B009F580916F008E72E9F4809171008E7239
S11326C0C9F40CB407FC16C08091C100807E91F45B
S11326D08091C900807E71F48091BC0082FD0AC0A3
S11326E080917A0087FF03C081E090E005C085E017
S11326F090E002C080E090E023B78E1708F4E82F42
S1132700FF27E453FF4FE491207F2160E22BE3BFD6
S113271078948895F89483B78E7F83BF8091BE03A5
S11327208F3F09F4A4CF282F3327F901E45AFD4F32
S113273080818093BE038F3F11F48093CF038FEF8A
S113274080832F3F09F493CF4FBF822F0E949A0EAC
S113275089CFACE2B0E0EFEAF3E10C945D15222EF0
S1132760332E442E552E662E772E882E992EFE015A
S11327703196A8E01192AA95E9F729823A824B8210
S11327805C826D827E828F829886FE013996B8E0E3
S11327901192BA95E9F7A986BA86CB86DC86ED86CE
S11327A0FE860F87188B89819A81AB81BC8189A7AA
S11327B09AA7ABA7BCA77C018D018FEF9FEFA0E088
S11327C0B0E0E822F9220A231B2389A59AA5ABA528
S11327D0BCA51D014424552489859A85AB85BC85F7
S11327E08DA39EA3AFA3B8A75C016D018FEF9FEFEC
S11327F0A0E0B0E0A822B922CA22DB228DA19EA1CA
S1132800AFA1B8A53D0188249924C801B701A60148
S113281095010E943E1569A37AA38BA39CA3C801CA
S1132820B701A40193010E943E157B018C01C201F2
S1132830B101A60195010E943E155B016C01C20124
S1132840B101A40193010E943E153B014C01EA0C25
S1132850FB1C0C1D1D1D89A19AA1ABA1BCA19D014E
S1132860442755272E0D3F1D401F511F2A153B0598
S11328704C055D0540F480E090E0A1E0B0E0680E16
S1132880791E8A1E9B1ECA01AA27BB27860D971D87
S1132890A81DB91D8D8F9E8FAF8FB8A3A9013327B3
S11328A0222789A19AA1ABA1BCA1A070B070280F66
S11328B0391F4A1F5B1F298F3A8F4B8F5C8FA98C5E
S11328C0BA8CCB8CDC8CED8CFE8C0F8D18A1FE01A8
S11328D0719698E011929A95E9F7ED8AFE8A0F8B2A
S11328E0188F2D813E814F8158856DA17EA18FA1C6
S11328F098A50E943E153B014C012D853E854F85D0
S1132900588969A57AA58BA59CA50E943E152D8999
S11329103E894F89588D260F371F481F591F260D92
S1132920371D481D591D2D8B3E8B4F8B588F6D883D
S11329307E888F88988C2A2D3B2D4C2D5D2D662DFD
S1132940772D882D992DE2E1AC960C947915A0E1B0
S1132950B0E0EDEAF4E10C945D15222E332E442E02
S1132960552E662E772E882E992E002309F466C0E4
S113297088E0FE01319611928A95E9F729833A831A
S11329804B835C836D837E838F829887E0E2E01BB8
S11329901E16CCF52D813E814F815885602F7727F7
S11329A067FD7095DA01C901062E04C0B695A79596
S11329B0979587950A94D2F78D879E87AF87B88BB2
S11329C004C0220F331F441F551FEA95D2F7898193
S11329D09A81AB81BC8104C0B695A79597958795DC
S11329E06A95D2F7282B392B4A2B5B2B29873A87F8
S11329F04B875C8729843A844B845C846D847E8411
S1132A008F8498881BC01D861E861F86188A2E2FC9
S1132A10332727FD3095309521953F4F8D819E8139
S1132A20AF81B88504C0B695A795979587952A95E3
S1132A30D2F789879A87AB87BC87DCCF222D332DC9
S1132A40442D552D662D772D882D992DE2E1609624
S1132A500C947915AA1BBB1B51E107C0AA1FBB1F0D
S1132A60A617B70710F0A61BB70B881F991F5A9516
S1132A70A9F780959095BC01CD010895629FD0017E
S1132A80739FF001829FE00DF11D649FE00DF11D25
S1132A90929FF00D839FF00D749FF00D659FF00DD4
S1132AA09927729FB00DE11DF91F639FB00DE11DC1
S1132AB0F91FBD01CF01112408952F923F924F9227
S1132AC05F926F927F928F929F92AF92BF92CF92BA
S1132AD0DF92EF92FF920F931F93CF93DF93CDB7C3
S1132AE0DEB7CA1BDB0B0FB6F894DEBF0FBECDBF3B
S1132AF009942A88398848885F846E847D848C840C
S1132B009B84AA84B984C884DF80EE80FD800C8114
S1132B101B81AA81B981CE0FD11D0FB6F894DEBFF7
S1132B200FBECDBFED010895DC0101C06D9341508E
S10B2B305040E0F70895FFCFC7
S1112B38010001010022FFFFFFFFFFFF01006B
S9030000FC
